:04000000CCEF01F050
:10000800FACF14F0FBCF15F0E9CF16F0EACF17F0CE
:10001800E1CF18F0E2CF19F0D9CF1AF0DACF1BF000
:10002800F3CF1CF0F4CF1DF0F6CF1EF0F7CF1FF082
:10003800F8CF20F0F5CF21F0D8CF61F00001000112
:10004800606FE0CF62F0EACF63F0E9CF64F0F2AA24
:1000580001D001D068D1F2A401D001D064D100014F
:1000680000016505D8A401D001D009D01B0EFC6E93
:10007800136E000E00010001656F135000D06FC0B1
:10008800EAFF000EE96E60C0EEFF61C0EEFF62C0DD
:10009800EEFFFCCFEEFF63C0EEFF64C0EEFFE2CFE1
:1000A800EEFFE1CFEEFFDACFEEFFD9CFEEFFF4CFD0
:1000B800EEFFF3CFEEFFF8CFEEFFF7CFEEFFF6CF70
:1000C800EEFFF5CFEEFFFBCFEEFFFACFEEFF000E0F
:1000D800E26E000EE16EE6CFEEFFE6CFEEFFE6CF72
:1000E800EEFFE6CFEEFFE6CFEEFFE6CFEEFFE6CF80
:1000F800EEFFE6CFEEFFE6CFEEFFE6CFEEFFE6CF70
:10010800EEFFE6CFEEFFE6CFEEFFE6CFEEFFE6CF5F
:10011800EEFFE6CFEEFFE6CFEEFFE6CFEEFFE6CF4F
:10012800EEFFE6CFEEFFE6CFEEFFE6CFEEFFE6CF3F
:10013800EEFFE6CFEEFFE6CFEEFFE6CFEEFFE6CF2F
:10014800EEFFE6CFEEFFE6CFEEFFE6CFEEFFE6CF1F
:10015800EEFFE6CFEEFFE6CFEEFFE6CFEEFFE6CF0F
:10016800EEFFE6CFEEFFE6CFEEFFE6CFEEFFE6CFFF
:10017800EEFFE6CFEEFFE6CFEEFFE6CFEEFFE6CFEF
:10018800EEFFE6CFEEFFE6CFEEFFE6CFEEFFE6CFDF
:10019800EEFFE6CFEEFF8A0ED76ECF0ED66EF29444
:1001A80000010001714B722B00010001702B00014E
:1001B80000017051060AD8A401D001D007D0136EEF
:1001C800000E00010001706F135000D00001000103
:1001D8007051010D0001690EF324D96E0001000E63
:1001E800F420DA6EDF50000100016F6F000EE26E3E
:1001F800000EE16E6FC0EAFF120EE96EEECFE6FF69
:10020800EECFE6FFEECFE6FFEECFE6FFEECFE6FF5E
:10021800EECFE6FFEECFE6FFEECFE6FFEECFE6FF4E
:10022800EECFE6FFEECFE6FFEECFE6FFEECFE6FF3E
:10023800EECFE6FFEECFE6FFEECFE6FFEECFE6FF2E
:10024800EECFE6FFEECFE6FFEECFE6FFEECFE6FF1E
:10025800EECFE6FFEECFE6FFEECFE6FFEECFE6FF0E
:10026800EECFE6FFEECFE6FFEECFE6FFEECFE6FFFE
:10027800EECFE6FFEECFE6FFEECFE6FFEECFE6FFEE
:10028800EECFE6FFEECFE6FFEECFE6FFEECFE6FFDE
:10029800EECFE6FFEECFE6FFEECFE6FFEECFE6FFCE
:1002A800EECFE6FFEECFE6FFEECFE6FFEECFE6FFBE
:1002B800EECFE6FFEECFE6FFEECFE6FF6FC0EAFF38
:1002C800000EE96EEECF60F0EECF61F0EECF62F097
:1002D800EECFFCFFEECF63F0EECF64F0EECFE2FF9F
:1002E800EECFE1FFEECFDAFFEECFD9FFEECFF4FF8E
:1002F800EECFF3FFEECFF8FFEECFF7FFEECFF6FF2E
:10030800EECFF5FFEECFFBFFEECFFAFF64C0E9FFBB
:1003180063C0EAFF62C0E0FF00010001605161C0F4
:10032800D8FF100000D064C0E9FF63C0EAFF62C0D4
:10033800E0FF00010001605161C0D8FF10004FECE0
:1003480008F081EC0EF0D9EC0DF030EC0CF082ECFA
:1003580013F05AEC13F021C0F5FF20C0F8FF1FC0BE
:10036800F7FF1EC0F6FF1DC0F4FF1CC0F3FF1BC043
:10037800DAFF1AC0D9FF19C0E2FF18C0E1FF17C0A1
:10038800EAFF16C0E9FF15C0FBFF14C0FAFF110011
:0403980067EF14F007
:1010000020415543554E2020202020202020202004
:10101000202020200054656D702E204875696C6575
:101020003A00582D4A6F79737469636B3A00592DF1
:101030004A6F79737469636B3A0054656D702E2042
:101040004561753A0042617474657269653A006180
:101050006C61726D653D3000616C61726D653D3132
:1010600000566974657373653A004D617263686513
:101070003A0042616467653A0053696567653A0002
:1010800028282129290043686F633A0020793D0010
:101090004E2000783D004152004156000000F29E73
:1010A000C8EC11F01EEC0DF0D5EC12F0A5EC12F02E
:1010B0008BEC14F0106E020E016E105019EC14F04F
:1010C000106E010E00010001806F1050520EAD6EC7
:1010D000F28E8B948B928F90106E000E00010001A7
:1010E000736F1050106E780E00010001746F105075
:1010F000106E000E000100017F6F1050106E0D0E7B
:101100000B6E1050116E220E0C6E115006EC12F088
:10111000106E520E0A6E105031EC13F0106E200E4D
:101120000A6E105031EC13F0106E560E0A6E10500D
:1011300031EC13F0106E200E0A6E105031EC13F0EB
:10114000106E420E0A6E105031EC13F0106E0E0E3F
:101150000B6E1050116E220E0C6E115006EC12F038
:10116000106E300E0A6E105031EC13F0106E200E1F
:101170000A6E105031EC13F0106E300E0A6E1050E3
:1011800031EC13F0106E200E0A6E105031EC13F09B
:10119000106E300E0A6E105031EC13F0106E0F0E00
:1011A0000B6E1050116E220E0C6E115006EC12F0E8
:1011B000106E310E0A6E105031EC13F0106E200ECE
:1011C0000A6E105031EC13F0106E310E0A6E105092
:1011D00031EC13F0106E200E0A6E105031EC13F04B
:1011E000106E310E0A6E105031EC13F0106E000EBE
:1011F00000010001666F105000D0106E000E0B6EE3
:101200001050116E000E0C6E115006EC12F0100E04
:101210000B6E6A0E0A6E05EC13F081B001D001D09E
:1012200007D0100E0B6E990E0A6E05EC13F013D05A
:1012300081B201D001D007D0100E0B6E960E0A6E4F
:1012400005EC13F008D0100E0B6E900E0A6E05EC34
:1012500013F001D000D0106E010E0B6E1050116E05
:10126000000E0C6E115006EC12F0100E0B6E790E83
:101270000A6E05EC13F081B401D001D007D0106ED6
:10128000310E0A6E105031EC13F007D0106E300E94
:101290000A6E105031EC13F000D0106E020E0B6E7F
:1012A0001050116E000E0C6E115006EC12F0100E64
:1012B0000B6E3A0E0A6E05EC13F0106E020E016E04
:1012C0001050A5EC13F00A6E06EC11F0106E030E30
:1012D0000B6E1050116E000E0C6E115006EC12F0D9
:1012E000100E0B6E150E0A6E05EC13F0106E030E49
:1012F000016E1050A5EC13F00A6E06EC11F0106EA2
:10130000040E0B6E1050116E000E0C6E115006EC98
:1013100012F0100E0B6E860E0A6E05EC13F081B6FD
:1013200001D001D007D0106E310E0A6E105031EC92
:1013300013F007D0106E300E0A6E105031EC13F01F
:1013400000D0106E050E0B6E1050116E000E0C6E5C
:10135000115006EC12F0100E0B6E610E0A6E05ECC9
:1013600013F084B001D001D004D000010001732B30
:1013700000D084B201D001D004D000010001730775
:1013800000D073C00AF006EC11F0106E060E0B6E62
:101390001050116E000E0C6E115006EC12F0100E73
:1013A0000B6E450E0A6E05EC13F084B401D001D02B
:1013B00004D000010001742B00D084B601D001D00C
:1013C00004D000010001740700D074C00AF006ECDC
:1013D00011F0106E070E0B6E1050116E000E0C6E99
:1013E000115006EC12F084B801D001D007D0100ED5
:1013F0000B6E800E0A6E05EC13F007D0100E0B6E0C
:101400000F0E0A6E05EC13F000D0106E080E0B6E76
:101410001050116E000E0C6E115006EC12F0100EF2
:101420000B6E720E0A6E05EC13F0000100017F676F
:1014300001D001D007D0100E0B6E000E0A6E05EC25
:1014400013F01FD0106E000E126E105010D01250FC
:10145000010D0001750EF324D96E0001000EF42079
:10146000DA6EDF500A6E06EC11F0122A00D000018D
:1014700000017F51125CD8A001D001D0E8D701D083
:1014800000D0106E090E0B6E1050116E000E0C6E17
:10149000115006EC12F0100E0B6E220E0A6E05ECC7
:1014A00013F0106E0A0E016E1050A5EC13F00A6EC8
:1014B00006EC11F0106E0A0E0B6E1050116E000E3D
:1014C0000C6E115006EC12F0100E0B6E2E0E0A6E02
:1014D00005EC13F0106E0B0E016E1050A5EC13F01E
:1014E0000A6E06EC11F0000100016605D8A401D0D7
:1014F00001D025D0106E000E0B6E1050116E140E20
:101500000C6E115006EC12F0100E0B6E930E0A6E5C
:1015100005EC13F067C00AF006EC11F0100E0B6E2C
:101520008C0E0A6E05EC13F068C00AF006EC11F0A0
:1015300067C00BF068C00CF0A5EC0FF002D000F013
:1015400000D0070107010305D8A401D001D011D0B4
:10155000106E0B0E0B6E1050116E000E0C6E1150B3
:1015600006EC12F0100E0B6E580E0A6E05EC13F01E
:1015700044D6106E0B0E0B6E1050116E000E0C6EDA
:10158000115006EC12F0100E0B6E4F0E0A6E05ECA9
:1015900013F033D632D631D61200226E010E00017E
:1015A0000001656F2250226E010E00010001696F7B
:1015B0002250226E020E000100016A6F2250226E3C
:1015C000030E000100016B6F2250226E040E000119
:1015D00000016C6F2250226E050E000100016D6F3C
:1015E0002250226E060E000100016E6F2250226E04
:1015F000050E00010001706F2250000100017051C2
:10160000010D0001690EF324D96E0001000EF420D3
:10161000DA6EDF50000100016F6FFCCF23F0020E85
:10162000FC6E9E0E286E100E296E000E2A6E28C0CB
:101630002FF029C030F02AC031F0000E2C6E2F0E92
:101640002B6E2BC0D9FF2CC0DAFFDF50FD6E2B4A6A
:101650002C2A2BC0D9FF2CC0DAFFDF50FE6E2B4A9C
:101660002C2A2BC0D9FF2CC0DAFFDF50FF6E070EEB
:10167000FC6E020E286E1D0E296E000E2A6E28C00A
:101680002FF029C030F02AC031F0000E2C6E2F0E42
:101690002B6E2BC0D9FF2CC0DAFFDF50FD6E2B4A1A
:1016A0002C2A2BC0D9FF2CC0DAFFDF50FE6E2B4A4C
:1016B0002C2A2BC0D9FF2CC0DAFFDF50FF6E0C0E96
:1016C000FC6EB20E286E1B0E296E000E2A6E28C00C
:1016D0002FF029C030F02AC031F0000E2C6E2F0EF2
:1016E0002B6E2BC0D9FF2CC0DAFFDF50FD6E2B4ACA
:1016F0002C2A2BC0D9FF2CC0DAFFDF50FE6E2B4AFC
:101700002C2A2BC0D9FF2CC0DAFFDF50FF6E110E40
:10171000FC6E600E286E180E296E000E2A6E28C010
:101720002FF029C030F02AC031F0000E2C6E2F0EA1
:101730002B6E2BC0D9FF2CC0DAFFDF50FD6E2B4A79
:101740002C2A2BC0D9FF2CC0DAFFDF50FE6E2B4AAB
:101750002C2A2BC0D9FF2CC0DAFFDF50FF6E160EEB
:10176000FC6E040E286E270E296E000E2A6E28C00D
:101770002FF029C030F02AC031F0000E2C6E2F0E51
:101780002B6E2BC0D9FF2CC0DAFFDF50FD6E2B4A29
:101790002C2A2BC0D9FF2CC0DAFFDF50FE6E2B4A5B
:1017A0002C2A2BC0D9FF2CC0DAFFDF50FF6E1B0E96
:1017B000FC6EB40E286E260E296E000E2A6E28C00E
:1017C0002FF029C030F02AC031F0000E2C6E2F0E01
:1017D0002B6E2BC0D9FF2CC0DAFFDF50FD6E2B4AD9
:1017E0002C2A2BC0D9FF2CC0DAFFDF50FE6E2B4A0B
:1017F0002C2A2BC0D9FF2CC0DAFFDF50FF6E23C08C
:10180000FCFF226E020E01010101036F2250226EC5
:10181000070E02010201036F2250226E0C0E03011B
:101820000301036F2250226E110E04010401036FA5
:101830002250226E160E05010501036F2250226E02
:101840001B0E06010601036F2250000E000100016D
:10185000726F000E0001716F010ED56EF28A1200D8
:1018600000D09EA801D001D0FCD700D0540EAD6EA0
:1018700000D0ACA201D001D0FCD701D000D09EA8EE
:1018800001D001D0FCD700D0410EAD6E00D0ACA28B
:1018900001D001D0FCD701D000D09EA801D001D04A
:1018A000FCD700D0430EAD6E00D0ACA201D001D069
:1018B000FCD701D000D09EA801D001D0FCD700D029
:1018C000480EAD6E00D0ACA201D001D0FCD701D043
:1018D00000D09EA801D001D0FCD700D0450EAD6E3F
:1018E00000D0ACA201D001D0FCD701D000D09EA87E
:1018F00001D001D0FCD700D0340EAD6E00D0ACA228
:1019000001D001D0FCD701D000D09EA801D001D0D9
:10191000FCD700D05F0EAD6E00D0ACA201D001D0DC
:10192000FCD701D000D09EA801D001D0FCD700D0B8
:10193000450EAD6E00D0ACA201D001D0FCD701D0D5
:1019400000D09EA801D001D0FCD700D04E0EAD6EC5
:1019500000D0ACA201D001D0FCD701D000D09EA80D
:1019600001D001D0FCD700D05F0EAD6E00D0ACA28C
:1019700001D001D0FCD701D000D09EA801D001D069
:10198000FCD700D0430EAD6E00D0ACA201D001D088
:10199000FCD701D000D09EA801D001D0FCD700D048
:1019A0004F0EAD6E00D0ACA201D001D0FCD701D05B
:1019B00000D09EA801D001D0FCD700D0550EAD6E4E
:1019C00000D0ACA201D001D0FCD701D000D09EA89D
:1019D00001D001D0FCD700D0520EAD6E00D0ACA229
:1019E00001D001D0FCD701D000D09EA801D001D0F9
:1019F000FCD700D0530EAD6E00D0ACA201D001D008
:101A0000FCD700D0000E026E000E016EE80E015CE5
:101A1000FD0E0258D8A001D001D002D021D720D786
:101A2000014A022AE80E015CFD0E0258D8A001D03E
:101A300001D0F6D715D714D713D712000B6E000EAE
:101A40000E6E0B50000E906E1F0E916E000E996E72
:101A5000000E9A6E919A918C91980B6E040E016E05
:101A60000B5041EC14F091880B6E0C0E016E0B5074
:101A700041EC14F017D00E2A0B6E0C0E016E0B50B9
:101A800041EC14F0C80E0E6401D001D00BD08B8253
:101A90008F808B94F29EFFD70B6E000E0E6E0B5054
:101AA00001D000D0C8EC13F00009D8B401D001D0A7
:101AB000E2D700D00B6E270E066E0B500C6E0F0E89
:101AC000076E0C500D6E210E086E0D50C2EC10F01A
:101AD0000B6E000E066E0B500C6E000E076E0C5057
:101AE0000D6E220E086E0D50C2EC10F00B6E000E43
:101AF000066E0B500C6E000E076E0C500D6E240E11
:101B0000086E0D50C2EC10F00B6E000E066E0B50FE
:101B10000C6E7B0E076E0C500D6E400E086E0D5055
:101B2000C2EC10F00B6E280E066E0B500C6E000E01
:101B3000076E0C500D6E410E086E0D50C2EC10F089
:101B40000B6E000E066E0B500C6E800E076E0C5066
:101B50000D6E420E086E0D50C2EC10F00B6E280E8A
:101B6000066E0B500C6E000E076E0C500D6E430E81
:101B7000086E0D50C2EC10F00B6E800E066E0B500E
:101B8000E7EC13F00B6E9C0E066E0B50E7EC13F0B7
:101B90000B6EA00E066E0B50E7EC13F00B6E020EF0
:101BA000066E0B500C6E700E076E0C5074EC12F03B
:101BB0001200000100016605D8A401D001D030D088
:101BC000CA0E00010001676501D001D029D0D10EF5
:101BD00000010001676101D001D022D0700E000128
:101BE0000001686501D001D009D0790E0001000123
:101BF000686101D001D002D08B8400D0780E000142
:101C00000001686501D001D00BD07F0E00010001FA
:101C1000686101D001D004D08B9402D001D000D0F3
:101C2000000100016605D8A401D001D030D0D60E45
:101C300000010001676501D001D029D0DD0E00014F
:101C40000001676101D001D022D0700E00010001B7
:101C5000686501D001D009D0790E000100016861EA
:101C600001D001D002D08B8200D0780E000100019B
:101C7000686501D001D00BD07F0E000100016861C2
:101C800001D001D004D08B9202D001D000D000014D
:101C900000016605D8A401D001D08BD7E20E000167
:101CA0000001676501D001D084D7E90E0001000171
:101CB000676101D001D07DD7700E00010001686519
:101CC00001D001D009D0790E00010001686101D076
:101CD00001D002D08F8000D0780E0001000168652D
:101CE00001D001D066D77F0E00010001686101D0EC
:101CF00001D05FD78F905DD75CD75BD75AD759D7C4
:101D00001200096E000E00010001666F095000D03C
:101D10008F868F980B0E026EB80E016E9CEC14F03D
:101D2000160EC06E010EC26E030EC26E00D0C2B29D
:101D300001D001D0FCD7C4CF0EF0C3CF0FF00F50AD
:101D40000F0BD8B401D001D009D0096E000E0E6E71
:101D50000950096E000E0F6E095000D0090E0E6476
:101D600001D001D06CD08F968F880B0E026EB80E0A
:101D7000016E9CEC14F0160EC06E050EC26E070EBE
:101D8000C26E00D0C2B201D001D0FCD7C4CF10F0D7
:101D9000C3CF11F011500F0BD8B401D001D009D02E
:101DA000096E000E106E0950096E000E116E09507A
:101DB00000D0130E106401D001D039D00E500B6E3C
:101DC0000F500A6E10500D6E11500C6EB20E0A2498
:101DD0000A6EF30E0B200B6E9C0E0C240C6EE60E9E
:101DE0000D200D6E0AC001F00BC002F0000E046E53
:101DF000F60E036E3EEC12F0015000010001676F19
:101E00000CC001F00DC002F0010E046E990E036EBD
:101E10003EEC12F0015000087F0F00010001686FD6
:101E2000096E010E00010001666F095071D7096E3D
:101E3000000E00010001666F09506AD769D7096E6C
:101E4000000E00010001666F095062D761D760D7AC
:101E5000120095828C968C94000E026E640E016EB8
:101E6000ACEC14F08C86056E000E066E055000D0AA
:101E7000030E026EE80E016EACEC14F0062A83A08D
:101E800001D001D005D0056E410E066E055000D080
:101E9000400E066401D001D0EBD783A001D001D061
:101EA00050D0056E000E076E0550056E000E086ED0
:101EB0000550056E000E096E0550056E000E086E89
:101EC0000550070E086401D001D002D026D025D0DD
:101ED00083A201D001D003D009500109096E095035
:101EE0000924096E000E026E640E016EACEC14F053
:101EF0008C84010E026EF40E016EACEC14F08C9426
:101F0000010E026E900E016EACEC14F0082A070E62
:101F1000086401D001D0DCD700D00750010DF35088
:101F20000324D96EF4500420DA6E09C0DFFF072ABB
:101F300083B001D001D0BDD700D0075005D004D068
:101F400003D0000E01D000D012000BC001F0026AD5
:101F5000000E046E060E036E10EC10F00C50280DEF
:101F60000150F3240E6E0250F4200F6E0EC006F0E6
:101F70000F50076E0D6E240E086E0D50C2EC10F05F
:101F80002CD00D6EFD0E066E0D50E7EC13F047D011
:101F90000D6EFC0E066E0D50E7EC13F040D00D6E8A
:101FA000FB0E066E0D50E7EC13F039D00D6EFA0EF5
:101FB000066E0D50E7EC13F032D00D6EF90E066E82
:101FC0000D50E7EC13F02BD00D6EF80E066E0D5091
:101FD000E7EC13F024D023D022D00BC001F0026A2A
:101FE000000E046E060E036E6EEC10F00250000A36
:101FF000D8B401D014D00150000AD8B4C2D7010A15
:10200000D8B4C6D7030AD8B4CAD7010AD8B4CED731
:10201000070AD8B4D2D7010AD8B4D6D700D0120054
:10202000056E000E076E055004AE01D001D009D038
:10203000036C041ED8B0042A056E010E076E05500D
:1020400000D002AE01D001D007D0016C021ED8B082
:10205000022A010E071A00D0000E096E000E086E4B
:1020600004500310D8B401D001D028D0056E010E61
:10207000066E055005D0D89003360436062A00D0E7
:1020800004AE01D001D0F7D701D000D0D8900836E7
:1020900009360350015C04500258D8A001D001D089
:1020A00006D00350015E0450025A088000D0D89038
:1020B00004320332062EEAD701D000D00750D8B43C
:1020C00001D001D005D0086C091ED8B0092A00D073
:1020D00008C001F009C002F000D01200056E000E29
:1020E000076E055002AE01D001D009D0016C021E6E
:1020F000D8B0022A056E010E076E055000D004AE5E
:1021000001D001D005D0036C041ED8B0042A00D041
:1021100004500310D8B401D001D024D0056E010EB4
:10212000066E055005D0D89003360436062A00D036
:1021300004AE01D001D0F7D701D000D00350015C2C
:1021400004500258D8A001D001D005D00350015E40
:102150000450025A00D0D89004320332062EEED733
:1021600001D000D00750D8B401D001D005D0016C07
:10217000021ED8B0022A00D001C001F002C002F055
:1021800000D01200096E000E0A6E095049EC11F0E1
:10219000096E0904D8A401D001D035D0096E0C0E07
:1021A000016E095041EC14F006C001F0BCEC14F0D3
:1021B00049EC11F0096E0904D8A401D001D023D054
:1021C000096E0C0E016E095041EC14F007C001F0CD
:1021D000BCEC14F049EC11F0096E0904D8A401D04C
:1021E00001D011D0096E0C0E016E095041EC14F0B3
:1021F00008C001F0C8EC14F0096E010E0A6E095017
:1022000002D001D000D00A5000D012000A380F0BC3
:102210000C6E090E0C6401D001D004D00C50170FC5
:102220000C6E07D00C50100F0C6E03D002D000F0D3
:1022300000D00CC006F00B6EC00E076E0B5074EC95
:1022400012F00009D8B401D001D0F1D700D00A5063
:102250000F0B0C6E090E0C6401D001D004D00C5091
:10226000170F0C6E07D00C50100F0C6E03D002D05D
:1022700000F000D00CC006F00B6EC00E076E0B50C5
:1022800074EC12F00009D8B401D001D0F1D700D01D
:102290001200026E000E036E0250026E020E056EF8
:1022A00002502ED0996891809196919200F087CF3C
:1022B00004F0918291860450030B046E0450030ACB
:1022C000D8B401D001D016D0032A026E0C0E016ED4
:1022D000025041EC14F0F90E036401D001D010D08B
:1022E000F29E8B948B828F80026E000E056E0250E0
:1022F00007D006D0026E010E056E025001D000D04C
:102300000550020AD8B401D001D0CCD700D0055076
:1023100000D01200A00E0F010F01266F000E0F015A
:102320000F01256F000E0F010F01246F000E0F012A
:102330000F01236F0F010F0125810F010F0125836D
:102340000F010F0125850F010F0125870F010F01D7
:1023500024850F010F0124878B848B828F809494B6
:102360009492989098969898959495969A9EF19EA6
:102370000F010F01538D266E700E226E2650D4EC85
:1023800014F0020E236E000E226E2EEC14F01200DA
:10239000A00E0F010F01266F000E0F010F01256F18
:1023A000000E0F010F01246F000E0F010F01236FAC
:1023B0000F010F0125810F010F0125830F010F016F
:1023C00025850F010F0125870F010F0124850F01BE
:1023D0000F0124878B848B828F80949494929890A1
:1023E00098969898959495969A9EF19E0F010F0154
:1023F000538D056E700E016E0550DEEC14F0020E6A
:10240000026E000E016E54EC14F012007B0E0F6E83
:10241000000E0E6E0F0E0B6401D001D005D00D6EB4
:10242000000E0B6E0D5000D0270E0C6401D001D0B1
:1024300005D00D6E000E0C6E0D5000D00B50280D07
:102440000C50F326000EF4220E50F3240E6E0F50A3
:10245000F4200F6E02D000F000D00EC006F00F5036
:10246000076E0D6E240E086E0D50C2EC10F00009C0
:10247000D8B401D001D0EFD700D01200000E076E03
:10248000000E066E04500310D8B401D001D027D03E
:10249000056E010E086E055005D0D890033604363F
:1024A000082A00D004AE01D001D0F7D701D000D067
:1024B000D890063607360350015C04500258D8A065
:1024C00001D001D006D00350015E0450025A0680AC
:1024D00000D0D89004320332082EEAD700D006C0CC
:1024E00001F007C002F01200086E000E096E0850DD
:1024F00049EC11F0086E0804D8A401D001D022D014
:10250000086E0C0E016E085041EC14F006C001F08C
:10251000BCEC14F049EC11F0086E0804D8A401D00A
:1025200001D010D0086E0C0E016E085041EC14F072
:1025300007C001F0C8EC14F0086E010E096E0850D7
:1025400001D000D0095000D012000B6E000E066EB4
:102550000B500C6E800E076E0C500D6E240E086E24
:102560000D50C2EC10F0800E0F6E000E0E6E0F506C
:10257000F80A0E10D8A401D001D002D015D014D082
:102580000B6E000E066E0B500C6EC00E076E0C50DC
:1025900074EC12F00E4A0F2A0F50F80A0E10D8A44D
:1025A00001D001D0EDD700D012000B6E000E066EE8
:1025B0000B500C6E000E076E0C500D6E240E086E44
:1025C0000D50C2EC10F0000E0F6E000E0E6E0F508C
:1025D000800A0E10D8A401D001D002D015D014D09A
:1025E0000B6E000E066E0B500C6EC00E076E0C507C
:1025F00074EC12F00E4A0F2A0F50800A0E10D8A465
:1026000001D001D0EDD700D012001CD002D000F0D4
:1026100000D00AC0F6FF0BC0F7FF000EF86E0800EE
:10262000F550E00F066E0C6EC00E076E0C5074EC89
:1026300012F00009D8B401D001D0E9D700D00A4A7D
:102640000B2A00D00AC0F6FF0BC0F7FF000EF86E91
:102650000800F5500009D8A401D001D0DAD700D085
:102660001200200E0A6001D001D005D00B6E3F0E83
:102670000A6E0B5000D09F0E0A6401D001D005D025
:102680000B6E3F0E0A6E0B5000D00A50E00F0A6E20
:1026900002D000F000D00AC006F00B6EC00E076E2C
:1026A0000B5074EC12F00009D8B401D001D0F1D76E
:1026B00000D012000001000E046E0001750E036EC2
:1026C00029EC0FF00B6E0B50D8B401D001D010D014
:1026D0000A0E0B6001D001D003D00BC07FF0EAD707
:1026E0000A6E000E000100017F6F0A50E3D7E2D7A7
:1026F0000A6E000E000100017F6F0A50DBD7DAD7A7
:10270000D9D7120081A401D001D00ED00001000160
:102710007351D8B401D001D007D0016E010E07016A
:102720000701036F015007D0016E000E070107017A
:10273000036F015000D036503510000ED8B4010E92
:10274000356E366ADFD7DED71200000EC16E160E68
:10275000C06E01501F0B016E0144E846FC0B016E78
:1027600001500109C26EC28200D0C2B201D001D0B4
:10277000FCD7C3A001D001D005D0026E000E036EBD
:10278000025003D0C4CF03F000D0035000D0120099
:10279000996891809196919200F000F000F087CFB7
:1027A00002F0918291860250030B030AD8A401D053
:1027B00001D005D0016E010E026E015005D0016EF0
:1027C000000E026E015000D0025000D01200076EC1
:1027D000000E086E075049EC11F0076E0704D8A4EC
:1027E00001D001D010D0076E0C0E016E075041ECE5
:1027F00014F006C001F0C8EC14F0076E010E086E6C
:10280000075001D000D012000BD0236E010E2D6EA8
:1028100023500ED0236E010E2E6E235009D008D007
:102820002250010AD8B4F1D7030AD8B4F3D700D0A4
:1028300012000BD0026E010E2D6E02500ED0026EF1
:10284000010E2E6E025009D008D00150010AD8B4F2
:10285000F1D7030AD8B4F3D700D0120022C024F075
:1028600023C025F0D89025322432D8902532243246
:102870002450BC6ECF0EBB162238F00B300BBB12AF
:1028800012000CD000F000F000F000F000F000F0BA
:1028900000F000F000F000F0010600D0016601D069
:1028A00001D0F0D700D0120001C003F002C004F044
:1028B000D89004320332D890043203320350BC6EF5
:1028C000CF0EBB160138F00B300BBB121200346A6E
:1028D000336A326AD00EF66E290EF76E000EF86E6D
:1028E0000900F5CF35F00900F5CF36F0000179EF9A
:1028F00014F08AEC11F0CDEC0AF0276E010E226E76
:10290000275004EC14F0D58EF284F28E00F0FED73E
:10291000FDD7CCEF01F0949C948E080E656E040EEA
:10292000D46EE10EAF6E040EAC6E800EAB6E240E54
:10293000AC6E900EAB6E120007D000F000F000F00D
:102940000106D8A0020600D002500110D8A401D080
:1029500001D0F3D700D0120007D000F000F000F053
:102960000106D8A0020600D002500110D8A401D060
:1029700001D0F3D700D0120001C090FF000E996E75
:1029800091909196919400F000F0918491861200BC
:1029900001C090FF000E996E91809196919400F085
:1029A00000F0918491861200CF0EBB160C0EBB1264
:1029B00022C0CBFF020ECA6ECA841200CF0EBB1615
:1029C0000C0EBB1201C0CBFF020ECA6ECA841200ED
:0229D000010004
:020000040020DA
:08000000FFFFFFFFFFFFFFFF00
:020000040030CA
:0E00000015136100308081FFFFC0FFE0FF405C
:00000001FF
