:04000000CCEF01F050
:10000800FACF14F0FBCF15F0E9CF16F0EACF17F0CE
:10001800E1CF18F0E2CF19F0D9CF1AF0DACF1BF000
:10002800F3CF1CF0F4CF1DF0F6CF1EF0F7CF1FF082
:10003800F8CF20F0F5CF21F0D8CF61F00001000112
:10004800606FE0CF62F0EACF63F0E9CF64F0F2AA24
:1000580001D001D068D1F2A401D001D064D100014F
:1000680000016505D8A401D001D009D01B0EFC6E93
:10007800136E000E00010001656F135000D06FC0B1
:10008800EAFF000EE96E60C0EEFF61C0EEFF62C0DD
:10009800EEFFFCCFEEFF63C0EEFF64C0EEFFE2CFE1
:1000A800EEFFE1CFEEFFDACFEEFFD9CFEEFFF4CFD0
:1000B800EEFFF3CFEEFFF8CFEEFFF7CFEEFFF6CF70
:1000C800EEFFF5CFEEFFFBCFEEFFFACFEEFF000E0F
:1000D800E26E000EE16EE6CFEEFFE6CFEEFFE6CF72
:1000E800EEFFE6CFEEFFE6CFEEFFE6CFEEFFE6CF80
:1000F800EEFFE6CFEEFFE6CFEEFFE6CFEEFFE6CF70
:10010800EEFFE6CFEEFFE6CFEEFFE6CFEEFFE6CF5F
:10011800EEFFE6CFEEFFE6CFEEFFE6CFEEFFE6CF4F
:10012800EEFFE6CFEEFFE6CFEEFFE6CFEEFFE6CF3F
:10013800EEFFE6CFEEFFE6CFEEFFE6CFEEFFE6CF2F
:10014800EEFFE6CFEEFFE6CFEEFFE6CFEEFFE6CF1F
:10015800EEFFE6CFEEFFE6CFEEFFE6CFEEFFE6CF0F
:10016800EEFFE6CFEEFFE6CFEEFFE6CFEEFFE6CFFF
:10017800EEFFE6CFEEFFE6CFEEFFE6CFEEFFE6CFEF
:10018800EEFFE6CFEEFFE6CFEEFFE6CFEEFFE6CFDF
:10019800EEFFE6CFEEFF8A0ED76ECF0ED66EF29444
:1001A80000010001714B722B00010001702B00014E
:1001B80000017051060AD8A401D001D007D0136EEF
:1001C800000E00010001706F135000D00001000103
:1001D8007051010D0001690EF324D96E0001000E63
:1001E800F420DA6EDF50000100016F6F000EE26E3E
:1001F800000EE16E6FC0EAFF120EE96EEECFE6FF69
:10020800EECFE6FFEECFE6FFEECFE6FFEECFE6FF5E
:10021800EECFE6FFEECFE6FFEECFE6FFEECFE6FF4E
:10022800EECFE6FFEECFE6FFEECFE6FFEECFE6FF3E
:10023800EECFE6FFEECFE6FFEECFE6FFEECFE6FF2E
:10024800EECFE6FFEECFE6FFEECFE6FFEECFE6FF1E
:10025800EECFE6FFEECFE6FFEECFE6FFEECFE6FF0E
:10026800EECFE6FFEECFE6FFEECFE6FFEECFE6FFFE
:10027800EECFE6FFEECFE6FFEECFE6FFEECFE6FFEE
:10028800EECFE6FFEECFE6FFEECFE6FFEECFE6FFDE
:10029800EECFE6FFEECFE6FFEECFE6FFEECFE6FFCE
:1002A800EECFE6FFEECFE6FFEECFE6FFEECFE6FFBE
:1002B800EECFE6FFEECFE6FFEECFE6FF6FC0EAFF38
:1002C800000EE96EEECF60F0EECF61F0EECF62F097
:1002D800EECFFCFFEECF63F0EECF64F0EECFE2FF9F
:1002E800EECFE1FFEECFDAFFEECFD9FFEECFF4FF8E
:1002F800EECFF3FFEECFF8FFEECFF7FFEECFF6FF2E
:10030800EECFF5FFEECFFBFFEECFFAFF64C0E9FFBB
:1003180063C0EAFF62C0E0FF00010001605161C0F4
:10032800D8FF100000D064C0E9FF63C0EAFF62C0D4
:10033800E0FF00010001605161C0D8FF10007AECB5
:1003480008F08FEC0FF037EC10F0E6EC0DF0F5EC60
:100358000CF0FCEC14F021C0F5FF20C0F8FF1FC022
:10036800F7FF1EC0F6FF1DC0F4FF1CC0F3FF1BC043
:10037800DAFF1AC0D9FF19C0E2FF18C0E1FF17C0A1
:10038800EAFF16C0E9FF15C0FBFF14C0FAFF110011
:04039800C0EF15F0AD
:1010000020415543554E2020202020202020202004
:101010002020202000616C61726D655F62617474D4
:10102000657269653D00616C61726D655F736965CC
:1010300067653D00616C61726D655F6875696C65BF
:101040003D00616C61726D655F667265696E3D0041
:1010500054656D702E204875696C653A00616C614D
:10106000726D655F63686F633D00582D4A6F7973D9
:101070007469636B3A00592D4A6F79737469636BB5
:101080003A00616C61726D655F636C653D00616C17
:1010900061726D655F6561753D0054656D702E20F0
:1010A0004561753A0042617474657269653A00562B
:1010B0006974657373653A00616C61726D65373D83
:1010C000004D61726368653A0042616467653A0089
:1010D00053696567653A0028282129290043686F0C
:1010E000633A0020793D004E2000783D00415200D7
:1010F00041560000F29EE2EC13F0D4EC0EF047EC07
:1011000014F077EC14F0E4EC15F0106E020E016EA2
:10111000105098EC15F0106E010E00010001806F68
:101120001050520EAD6EF28E8B948B928F90106E8B
:10113000000E00010001736F1050106E780E000158
:101140000001746F1050106E000E000100017F6FDF
:101150001050106E0D0E0B6E1050116E220E0C6E94
:10116000115040EC13F0106E520E0A6E1050D3EC7A
:1011700014F0106E200E0A6E1050D3EC14F0106EA6
:10118000560E0A6E1050D3EC14F0106E200E0A6E3C
:101190001050D3EC14F0106E420E0A6E1050D3ECC7
:1011A00014F0106E0E0E0B6E1050116E220E0C6E9F
:1011B000115040EC13F0106E300E0A6E1050D3EC4C
:1011C00014F0106E200E0A6E1050D3EC14F0106E56
:1011D000300E0A6E1050D3EC14F0106E200E0A6E12
:1011E0001050D3EC14F0106E300E0A6E1050D3EC89
:1011F00014F0106E0F0E0B6E1050116E220E0C6E4E
:10120000115040EC13F0106E310E0A6E1050D3ECFA
:1012100014F0106E200E0A6E1050D3EC14F0106E05
:10122000310E0A6E1050D3EC14F0106E200E0A6EC0
:101230001050D3EC14F0106E310E0A6E1050D3EC37
:1012400014F0106E000E00010001666F105000D007
:10125000106E000E0B6E1050116E000E0C6E1150C1
:1012600040EC13F0100E0B6EC10E0A6EA7EC14F0DA
:1012700081B001D001D007D0100E0B6EF00E0A6EB7
:10128000A7EC14F013D081B201D001D007D0100E1A
:101290000B6EED0E0A6EA7EC14F008D0100E0B6E5C
:1012A000E70E0A6EA7EC14F001D000D0106E010E0C
:1012B0000B6E1050116E000E0C6E115040EC13F0BE
:1012C000100E0B6ED00E0A6EA7EC14F081B401D094
:1012D00001D007D0106E310E0A6E1050D3EC14F00E
:1012E00007D0106E300E0A6E1050D3EC14F000D000
:1012F000106E020E0B6E1050116E000E0C6E11501F
:1013000040EC13F0100E0B6E9A0E0A6EA7EC14F060
:10131000106E020E016E105024EC15F00A6EBCEC3B
:1013200012F0106E030E0B6E1050116E000E0C6E4C
:10133000115040EC13F0100E0B6E500E0A6EA7EC1D
:1013400014F0106E030E016E105024EC15F00A6EAE
:10135000BCEC12F0106E040E0B6E1050116E000EED
:101360000C6E115040EC13F0100E0B6EDD0E0A6E79
:10137000A7EC14F081B601D001D007D0106E310E69
:101380000A6E1050D3EC14F007D0106E300E0A6EB7
:101390001050D3EC14F000D0106E050E0B6E1050F0
:1013A000116E000E0C6E115040EC13F0100E0B6E0F
:1013B000AF0E0A6EA7EC14F084B001D001D004D0B7
:1013C00000010001732B00D084B201D001D004D001
:1013D00000010001730700D073C00AF0BCEC12F0EA
:1013E000106E060E0B6E1050116E000E0C6E11502A
:1013F00040EC13F0100E0B6EA50E0A6EA7EC14F065
:1014000084B401D001D004D000010001742B00D0BD
:1014100084B601D001D004D000010001740700D0CF
:1014200074C00AF0BCEC12F0106E070E0B6E105078
:10143000116E000E0C6E115040EC13F084B801D008
:1014400001D007D0100E0B6ED70E0A6EA7EC14F069
:1014500007D0100E0B6E0F0E0A6EA7EC14F000D022
:10146000106E080E0B6E1050116E000E0C6E1150A7
:1014700040EC13F0100E0B6EC90E0A6EA7EC14F0C0
:10148000000100017F6701D001D007D0100E0B6E64
:10149000000E0A6EA7EC14F01FD0106E000E126E34
:1014A000105010D01250010D0001750EF324D96EAA
:1014B0000001000EF420DA6EDF500A6EBCEC12F070
:1014C000122A00D0000100017F51125CD8A001D087
:1014D00001D0E8D701D000D0106E090E0B6E10506D
:1014E000116E000E0C6E115040EC13F0100E0B6ECE
:1014F0006A0E0A6EA7EC14F0106E0A0E016E105000
:1015000024EC15F00A6EBCEC12F0106E0A0E0B6E95
:101510001050116E000E0C6E115040EC13F0100EB6
:101520000B6E760E0A6EA7EC14F0106E0B0E016EA9
:10153000105024EC15F00A6EBCEC12F00001000112
:101540006605D8A401D001D025D0106E000E0B6E18
:101550001050116E140E0C6E115040EC13F0100E62
:101560000B6EEA0E0A6EA7EC14F067C00AF0BCEC32
:1015700012F0100E0B6EE30E0A6EA7EC14F068C0AA
:101580000AF0BCEC12F067C00BF068C00CF05BEC2A
:1015900011F002D000F000D0106E0B0E0B6E105048
:1015A000116E000E0C6E115040EC13F0100E0B6E0D
:1015B0008E0E0A6EA7EC14F0070107010351010B10
:1015C0000A6EBCEC12F0106E0C0E0B6E1050116E09
:1015D000000E0C6E115040EC13F0100E0B6E340E1A
:1015E0000A6EA7EC14F007010701D8900331010B34
:1015F0000A6EBCEC12F0106E0D0E0B6E1050116ED8
:10160000000E0C6E115040EC13F0100E0B6E5D0EC0
:101610000A6EA7EC14F0070107010341E8423F0BF3
:10162000010B0A6EBCEC12F0106E0E0E0B6E105019
:10163000116E000E0C6E115040EC13F0100E0B6E7C
:10164000150E0A6EA7EC14F0070107010339E846EE
:101650001F0B010B0A6EBCEC12F0106E0B0E0B6E22
:101660001050116E140E0C6E115040EC13F0100E51
:101670000B6E820E0A6EA7EC14F007010701033906
:101680000F0B010B0A6EBCEC12F0106E0C0E0B6E01
:101690001050116E140E0C6E115040EC13F0100E21
:1016A0000B6E420E0A6EA7EC14F007010701033916
:1016B000E842070B010B0A6EBCEC12F0106E0D0E27
:1016C0000B6E1050116E140E0C6E115040EC13F096
:1016D000100E0B6E260E0A6EA7EC14F00701070120
:1016E0000345E846030B010B0A6EBCEC12F0106ECA
:1016F0000E0E0B6E1050116E140E0C6E115040EC4D
:1017000013F0100E0B6EB80E0A6EA7EC14F0070162
:1017100007010345010B010B0A6EBCEC12F098D5D2
:1017200097D51200226E010E00010001656F225054
:10173000226E010E00010001696F2250226E020E1E
:10174000000100016A6F2250226E030E00010001A9
:101750006B6F2250226E040E000100016C6F22504C
:10176000226E050E000100016D6F2250226E060EE2
:10177000000100016E6F2250226E050E0001000173
:10178000706F2250000100017051010D0001690EBF
:10179000F324D96E0001000EF420DA6EDF50000150
:1017A00000016F6FFCCF23F0020EFC6EF40E256E6D
:1017B000100E266E000E276E25C02CF026C02DF0D0
:1017C00027C02EF0000E296E2C0E286E28C0D9FFDF
:1017D00029C0DAFFDF50FD6E284A292A28C0D9FF28
:1017E00029C0DAFFDF50FE6E284A292A28C0D9FF17
:1017F00029C0DAFFDF50FF6E070EFC6E1E0E256E4D
:101800001F0E266E000E276E25C02CF026C02DF070
:1018100027C02EF0000E296E2C0E286E28C0D9FF8E
:1018200029C0DAFFDF50FD6E284A292A28C0D9FFD7
:1018300029C0DAFFDF50FE6E284A292A28C0D9FFC6
:1018400029C0DAFFDF50FF6E0C0EFC6E6E0E256EA7
:10185000200E266E000E276E25C02CF026C02DF01F
:1018600027C02EF0000E296E2C0E286E28C0D9FF3E
:1018700029C0DAFFDF50FD6E284A292A28C0D9FF87
:1018800029C0DAFFDF50FE6E284A292A28C0D9FF76
:1018900029C0DAFFDF50FF6E110EFC6ECC0E256EF4
:1018A0001B0E266E000E276E25C02CF026C02DF0D4
:1018B00027C02EF0000E296E2C0E286E28C0D9FFEE
:1018C00029C0DAFFDF50FD6E284A292A28C0D9FF37
:1018D00029C0DAFFDF50FE6E284A292A28C0D9FF26
:1018E00029C0DAFFDF50FF6E160EFC6EEA0E256E81
:1018F000190E266E000E276E25C02CF026C02DF086
:1019000027C02EF0000E296E2C0E286E28C0D9FF9D
:1019100029C0DAFFDF50FD6E284A292A28C0D9FFE6
:1019200029C0DAFFDF50FE6E284A292A28C0D9FFD5
:1019300029C0DAFFDF50FF6E1B0EFC6EF80E256E1D
:10194000290E266E000E276E25C02CF026C02DF025
:1019500027C02EF0000E296E2C0E286E28C0D9FF4D
:1019600029C0DAFFDF50FD6E284A292A28C0D9FF96
:1019700029C0DAFFDF50FE6E284A292A28C0D9FF85
:1019800029C0DAFFDF50FF6E23C0FCFF226E020E7B
:1019900001010101036F2250226E070E02010201B4
:1019A000036F2250226E0C0E03010301036F2250BD
:1019B000226E110E04010401036F2250226E160ED6
:1019C00005010501036F2250226E1B0E0601060160
:1019D000036F2250000E00010001726F000E000123
:1019E000716F010ED56EF28A120081A401D001D070
:1019F00013D0000100017351D8B401D001D00CD034
:101A000003C701F0000E036E060E026E24EC16F002
:101A100007010701036F0CD003C701F0000E036E2E
:101A2000060E026E15EC16F007010701036F00D0D9
:101A3000000100017F6701D001D00CD003C701F085
:101A4000000E036E040E026E24EC16F0070107016F
:101A5000036F0CD003C701F0000E036E040E026E7C
:101A600015EC16F007010701036F00D081B601D015
:101A700001D00CD003C701F0000E036E020E026EFF
:101A800024EC16F007010701036F0CD003C701F027
:101A9000000E036E020E026E15EC16F00701070130
:101AA000036F00D084B801D001D013D00001000131
:101AB0007351D8B401D001D00CD003C701F0000E8F
:101AC000036E050E026E24EC16F007010701036F8A
:101AD0000BD003C701F0000E036E050E026E15EC6D
:101AE00016F007010701036F066E020E016E065025
:101AF00024EC15F0076EC90E075CD8A001D001D008
:101B00000CD003C701F0000E036E000E026E24EC31
:101B100016F007010701036F0BD003C701F0000E99
:101B2000036E000E026E15EC16F007010701036F3D
:101B3000066E030E016E065024EC15F0076EC90EFA
:101B4000075CD8A001D001D00CD003C701F0000E73
:101B5000036E010E026E24EC16F007010701036FFD
:101B60000CD003C701F0000E036E010E026E15ECDF
:101B700016F007010701036F00D0190E00010001E4
:101B8000746101D001D00CD003C701F0000E036EC8
:101B9000030E026E24EC16F007010701036F0CD050
:101BA00003C701F0000E036E030E026E15EC16F073
:101BB00007010701036F00D033503210000ED8B474
:101BC000010E326E336A11D710D7120000D09EA8D2
:101BD00001D001D0FCD700D0540EAD6E00D0ACA225
:101BE00001D001D0FCD701D000D09EA801D001D0F7
:101BF000FCD700D0410EAD6E00D0ACA201D001D018
:101C0000FCD701D000D09EA801D001D0FCD700D0D5
:101C1000430EAD6E00D0ACA201D001D0FCD701D0F4
:101C200000D09EA801D001D0FCD700D0480EAD6EE8
:101C300000D0ACA201D001D0FCD701D000D09EA82A
:101C400001D001D0FCD700D0450EAD6E00D0ACA2C3
:101C500001D001D0FCD701D000D09EA801D001D086
:101C6000FCD700D0340EAD6E00D0ACA201D001D0B4
:101C7000FCD701D000D09EA801D001D0FCD700D065
:101C80005F0EAD6E00D0ACA201D001D0FCD701D068
:101C900000D09EA801D001D0FCD700D0450EAD6E7B
:101CA00000D0ACA201D001D0FCD701D000D09EA8BA
:101CB00001D001D0FCD700D04E0EAD6E00D0ACA24A
:101CC00001D001D0FCD701D000D09EA801D001D016
:101CD000FCD700D05F0EAD6E00D0ACA201D001D019
:101CE000FCD701D000D09EA801D001D0FCD700D0F5
:101CF000430EAD6E00D0ACA201D001D0FCD701D014
:101D000000D09EA801D001D0FCD700D04F0EAD6E00
:101D100000D0ACA201D001D0FCD701D000D09EA849
:101D200001D001D0FCD700D0550EAD6E00D0ACA2D2
:101D300001D001D0FCD701D000D09EA801D001D0A5
:101D4000FCD700D0520EAD6E00D0ACA201D001D0B5
:101D5000FCD701D000D09EA801D001D0FCD700D084
:101D6000530EAD6E00D0ACA201D001D0FCD700D094
:101D7000000E026E000E016EE80E015CFD0E0258B0
:101D8000D8A001D001D002D021D720D7014A022A01
:101D9000E80E015CFD0E0258D8A001D001D0F6D7A4
:101DA00015D714D713D712000B6E000E0E6E0B5002
:101DB000000E906E1F0E916E000E996E000E9A6EC0
:101DC000919A918C91980B6E040E016E0B50ADECB4
:101DD00015F091880B6E0C0E016E0B50ADEC15F0EA
:101DE00017D00E2A0B6E0C0E016E0B50ADEC15F0D9
:101DF000C80E0E6401D001D00BD08B828F808B94E3
:101E0000F29EFFD70B6E000E0E6E0B5001D000D06D
:101E100047EC15F00009D8B401D001D0E2D700D0CA
:101E20000B6E270E066E0B500C6E0F0E076E0C50CD
:101E30000D6E210E086E0D5078EC12F00B6E000E38
:101E4000066E0B500C6E000E076E0C500D6E220EBF
:101E5000086E0D5078EC12F00B6E000E066E0B50F3
:101E60000C6E000E076E0C500D6E240E086E0D5099
:101E700078EC12F00B6E000E066E0B500C6E7B0EA3
:101E8000076E0C500D6E400E086E0D5078EC12F07F
:101E90000B6E280E066E0B500C6E000E076E0C506B
:101EA0000D6E410E086E0D5078EC12F00B6E000EA8
:101EB000066E0B500C6E800E076E0C500D6E420EAF
:101EC000086E0D5078EC12F00B6E280E066E0B505B
:101ED0000C6E000E076E0C500D6E430E086E0D500A
:101EE00078EC12F00B6E800E066E0B5066EC15F05F
:101EF0000B6E9C0E066E0B5066EC15F00B6EA00E72
:101F0000066E0B5066EC15F00B6E020E066E0B5053
:101F10000C6E700E076E0C5016EC14F01200096E69
:101F2000000E00010001666F095000D08F868F9867
:101F30000B0E026EB80E016EF5EC15F0160EC06EAB
:101F4000010EC26E030EC26E00D0C2B201D001D02B
:101F5000FCD7C4CF0EF0C3CF0FF00F500F0BD8B487
:101F600001D001D009D0096E000E0E6E0950096E25
:101F7000000E0F6E095000D0090E0E6401D001D082
:101F80006CD08F968F880B0E026EB80E016EF5EC3A
:101F900015F0160EC06E050EC26E070EC26E00D092
:101FA000C2B201D001D0FCD7C4CF10F0C3CF11F022
:101FB00011500F0BD8B401D001D009D0096E000E1A
:101FC000106E0950096E000E116E095000D0130EEC
:101FD000106401D001D039D00E500B6E0F500A6E34
:101FE00010500D6E11500C6EB20E0A240A6EF30ED4
:101FF0000B200B6E9C0E0C240C6EE60E0D200D6E4D
:102000000AC001F00BC002F0000E046EF60E036E63
:1020100078EC13F0015000010001676F0CC001F073
:102020000DC002F0010E046E990E036E78EC13F0F1
:10203000015000087F0F00010001686F096E010E5A
:1020400000010001666F095071D7096E000E000192
:102050000001666F09506AD769D7096E000E00014A
:102060000001666F095062D761D760D71200000186
:1020700000016605D8A401D001D030D0CA0E0001FD
:102080000001676501D001D029D0D10E0001000107
:10209000676101D001D022D0700E00010001686597
:1020A00001D001D009D0790E00010001686101D092
:1020B00001D002D08B8400D0780E00010001686549
:1020C00001D001D00BD07F0E00010001686101D06A
:1020D00001D004D08B9402D001D000D000010001C7
:1020E0006605D8A401D001D030D0D60E0001000181
:1020F000676501D001D029D0DD0E000100016761C4
:1021000001D001D022D0700E00010001686501D01D
:1021100001D009D0790E00010001686101D001D021
:1021200002D08B8200D0780E00010001686501D0DA
:1021300001D00BD07F0E00010001686101D001D0F9
:1021400004D08B9202D001D000D0000100016605BE
:10215000D8A401D001D08BD7E20E00010001676541
:1021600001D001D084D7E90E00010001676101D0E0
:1021700001D07DD7700E00010001686501D001D04B
:1021800009D0790E00010001686101D001D002D0B0
:102190008F8000D0780E00010001686501D001D069
:1021A00066D77F0E00010001686101D001D05FD7C2
:1021B0008F905DD75CD75BD75AD759D712009582DD
:1021C0008C968C94000E026E640E016E05EC16F077
:1021D0008C86056E000E066E055000D0030E026E52
:1021E000E80E016E05EC16F0062A83A001D001D09E
:1021F00005D0056E410E066E055000D0400E0664F7
:1022000001D001D0EBD783A001D001D050D0056E12
:10221000000E076E0550056E000E086E0550056E27
:10222000000E096E0550056E000E086E0550070E73
:10223000086401D001D002D026D025D083A201D0DD
:1022400001D003D009500109096E09500924096E13
:10225000000E026E640E016E05EC16F08C84010E09
:10226000026EF40E016E05EC16F08C94010E026EF7
:10227000900E016E05EC16F0082A070E086401D0D6
:1022800001D0DCD700D00750010DF3500324D96EE4
:10229000F4500420DA6E09C0DFFF072A83B001D0B2
:1022A00001D0BDD700D0075005D004D003D0000E18
:1022B00001D000D012000BC001F0026A000E046EC3
:1022C000060E036EC6EC11F00C50280D0150F324DD
:1022D0000E6E0250F4200F6E0EC006F00F50076E07
:1022E0000D6E240E086E0D5078EC12F02CD00D6E91
:1022F000FD0E066E0D5066EC15F047D00D6EFC0E0F
:10230000066E0D5066EC15F040D00D6EFB0E066E9D
:102310000D5066EC15F039D00D6EFA0E066E0D50AC
:1023200066EC15F032D00D6EF90E066E0D5066ECAF
:1023300015F02BD00D6EF80E066E0D5066EC15F0F4
:1023400024D023D022D00BC001F0026A000E046E0C
:10235000060E036E24EC12F00250000AD8B401D02D
:1023600014D00150000AD8B4C2D7010AD8B4C6D7D5
:10237000030AD8B4CAD7010AD8B4CED7070AD8B44A
:10238000D2D7010AD8B4D6D700D01200056E000EFD
:10239000076E055004AE01D001D009D0036C041EB5
:1023A000D8B0042A056E010E076E055000D002AEAB
:1023B00001D001D007D0016C021ED8B0022A010E54
:1023C000071A00D0000E096E000E086E04500310AC
:1023D000D8B401D001D028D0056E010E066E05508C
:1023E00005D0D89003360436062A00D004AE01D0BA
:1023F00001D0F7D701D000D0D89008360936035065
:10240000015C04500258D8A001D001D006D003507E
:10241000015E0450025A088000D0D8900432033282
:10242000062EEAD701D000D00750D8B401D001D091
:1024300005D0086C091ED8B0092A00D008C001F0E8
:1024400009C002F000D01200056E000E076E0550A4
:1024500002AE01D001D009D0016C021ED8B0022A10
:10246000056E010E076E055000D004AE01D001D0FC
:1024700005D0036C041ED8B0042A00D00450031009
:10248000D8B401D001D024D0056E010E066E0550DF
:1024900005D0D89003360436062A00D004AE01D009
:1024A00001D0F7D701D000D00350015C045002588E
:1024B000D8A001D001D005D00350015E0450025ACB
:1024C00000D0D89004320332062EEED701D000D0CF
:1024D0000750D8B401D001D005D0016C021ED8B08D
:1024E000022A00D001C001F002C002F000D01200A8
:1024F000096E000E0A6E0950FFEC12F0096E090415
:10250000D8A401D001D035D0096E0C0E016E09504F
:10251000ADEC15F006C001F032EC16F0FFEC12F055
:10252000096E0904D8A401D001D023D0096E0C0E85
:10253000016E0950ADEC15F007C001F032EC16F059
:10254000FFEC12F0096E0904D8A401D001D011D01B
:10255000096E0C0E016E0950ADEC15F008C001F0CB
:102560003EEC16F0096E010E0A6E095002D001D041
:1025700000D00A5000D012000A380F0B0C6E090E62
:102580000C6401D001D004D00C50170F0C6E07D092
:102590000C50100F0C6E03D002D000F000D00CC015
:1025A00006F00B6EC00E076E0B5016EC14F000090F
:1025B000D8B401D001D0F1D700D00A500F0B0C6E67
:1025C000090E0C6401D001D004D00C50170F0C6E12
:1025D00007D00C50100F0C6E03D002D000F000D0CA
:1025E0000CC006F00B6EC00E076E0B5016EC14F00C
:1025F0000009D8B401D001D0F1D700D01200026E8A
:10260000000E036E0250026E020E056E02502ED0B6
:10261000996891809196919200F087CF04F0918211
:1026200091860450030B046E0450030AD8B401D001
:1026300001D016D0032A026E0C0E016E0250ADECD2
:1026400015F0F90E036401D001D010D0F29E8B94E6
:102650008B828F80026E000E056E025007D006D06E
:10266000026E010E056E025001D000D00550020A24
:10267000D8B401D001D0CCD700D0055000D0120082
:102680007B0E0F6E000E0E6E0F0E0B6401D001D08C
:1026900005D00D6E000E0B6E0D5000D0270E0C6491
:1026A00001D001D005D00D6E000E0C6E0D5000D083
:1026B0000B50280D0C50F326000EF4220E50F3247C
:1026C0000E6E0F50F4200F6E02D000F000D00EC03E
:1026D00006F00F50076E0D6E240E086E0D5078EC4C
:1026E00012F00009D8B401D001D0EFD700D0120009
:1026F000000E076E000E066E04500310D8B401D011
:1027000001D027D0056E010E086E055005D0D89077
:1027100003360436082A00D004AE01D001D0F7D722
:1027200001D000D0D890063607360350015C045023
:102730000258D8A001D001D006D00350015E045049
:10274000025A068000D0D89004320332082EEAD70D
:1027500000D006C001F007C002F01200A00E0F0169
:102760000F01266F000E0F010F01256F000E0F01E4
:102770000F01246F000E0F010F01236F0F010F01D6
:1027800025810F010F0125830F010F0125850F0101
:102790000F0125870F010F0124850F010F012487E9
:1027A0008B848B828F80949494929890989698982A
:1027B000959495969A9EF19E0F010F01538D4AECC8
:1027C00016F01200A00E0F010F01266F000E0F0170
:1027D0000F01256F000E0F010F01246F000E0F0176
:1027E0000F01236F0F010F0125810F010F012583B9
:1027F0000F010F0125850F010F0125870F010F0123
:1028000024850F010F0124878B848B828F80949401
:102810009492989098969898959495969A9EF19EF1
:102820000F010F01538D55EC16F01200086E000ECB
:10283000096E0850FFEC12F0086E0804D8A401D00D
:1028400001D022D0086E0C0E016E0850ADEC15F0D0
:1028500006C001F032EC16F0FFEC12F0086E08042E
:10286000D8A401D001D010D0086E0C0E016E085013
:10287000ADEC15F007C001F03EEC16F0086E010E4D
:10288000096E085001D000D0095000D012000B6E24
:10289000000E066E0B500C6E000E076E0C500D6E87
:1028A000240E086E0D5078EC12F0000E0F6E000E24
:1028B0000E6E0F50800A0E10D8A401D001D002D0A5
:1028C00015D014D00B6E000E066E0B500C6EC00EA1
:1028D000076E0C5016EC14F00E4A0F2A0F50800AA7
:1028E0000E10D8A401D001D0EDD700D012000B6E8D
:1028F000000E066E0B500C6E800E076E0C500D6EA7
:10290000240E086E0D5078EC12F0800E0F6E000E43
:102910000E6E0F50F80A0E10D8A401D001D002D0CC
:1029200015D014D00B6E000E066E0B500C6EC00E40
:10293000076E0C5016EC14F00E4A0F2A0F50F80ACE
:102940000E10D8A401D001D0EDD700D012001CD0B9
:1029500002D000F000D00AC0F6FF0BC0F7FF000E57
:10296000F86E0800F550E00F066E0C6EC00E076E94
:102970000C5016EC14F00009D8B401D001D0E9D7FE
:1029800000D00A4A0B2A00D00AC0F6FF0BC0F7FF9E
:10299000000EF86E0800F5500009D8A401D001D04F
:1029A000DAD700D01200200E0A6001D001D005D085
:1029B0000B6E3F0E0A6E0B5000D09F0E0A6401D0C2
:1029C00001D005D00B6E3F0E0A6E0B5000D00A509E
:1029D000E00F0A6E02D000F000D00AC006F00B6EC5
:1029E000C00E076E0B5016EC14F00009D8B401D0DD
:1029F00001D0F1D700D012000001000E046E0001DA
:102A0000750E036EDFEC10F00B6E0B50D8B401D0D6
:102A100001D010D00A0E0B6001D001D003D00BC042
:102A20007FF0EAD70A6E000E000100017F6F0A50A6
:102A3000E3D7E2D70A6E000E000100017F6F0A5053
:102A4000DBD7DAD7D9D71200000EC16E160EC06ED2
:102A500001501F0B016E0144E846FC0B016E015052
:102A60000109C26EC28200D0C2B201D001D0FCD72F
:102A7000C3A001D001D005D0026E000E036E02503B
:102A800003D0C4CF03F000D0035000D012009968E7
:102A900091809196919200F000F000F087CF02F0C3
:102AA000918291860250030B030AD8A401D001D071
:102AB00005D0016E010E026E015005D0016E000EB0
:102AC000026E015000D0025000D01200076E000EBE
:102AD000086E0750FFEC12F0076E0704D8A401D06F
:102AE00001D010D0076E0C0E016E0750ADEC15F042
:102AF00006C001F03EEC16F0076E010E086E07509E
:102B000001D000D012000BD0236E010E2A6E23508C
:102B10000ED0236E010E2B6E235009D008D0225008
:102B2000010AD8B4F1D7030AD8B4F3D700D0120001
:102B30000BD0026E010E2A6E02500ED0026E010EF4
:102B40002B6E025009D008D00150010AD8B4F1D739
:102B5000030AD8B4F3D700D012000CD000F000F074
:102B600000F000F000F000F000F000F000F000F0E5
:102B7000010600D0016601D001D0F0D700D01200CC
:102B8000316A306A2F6AC00EF66E2C0EF76E000E98
:102B9000F86E0900F5CF32F00900F5CF33F00001EF
:102BA000D2EF15F0AEEC13F092EC0BF0246E010EA8
:102BB000226E245083EC15F0D58EF284F28E00F054
:102BC000FED7FDD7CCEF01F0949C948E080E656E75
:102BD000040ED46EE10EAF6E040EAC6E800EAB6EC2
:102BE000240EAC6E900EAB6E120007D000F000F019
:102BF00000F00106D8A0020600D002500110D8A4AF
:102C000001D001D0F3D700D0120007D000F000F0BF
:102C100000F00106D8A0020600D002500110D8A48E
:102C200001D001D0F3D700D0120002C004F0010E91
:102C3000056E042A02D0D8900536042EFCD7055024
:102C4000FF0A011400D0120002C004F0010E056E4C
:102C5000042A02D0D8900536042EFCD70550011066
:102C600000D0120001C090FF000E996E91909196D5
:102C7000919400F000F091849186120001C090FFC1
:102C8000000E996E91809196919400F000F09184DD
:102C9000918612009A9ECB68BC68000ECA6E0C0E1C
:102CA000BB6E000ECC6ECA8412009A9ECB68BC68C4
:102CB000000ECA6E0C0EBB6E000ECC6ECA841200E3
:022CC000010011
:020000040020DA
:08000000FFFFFFFFFFFFFFFF00
:020000040030CA
:0E00000015136100308081FFFFC0FFE0FF405C
:00000001FF
