:04000000CCEF01F050
:10000800FACF2AF0FBCF2BF0E9CF2CF0EACF2DF076
:10001800E1CF2EF0E2CF2FF0D9CF30F0DACF31F0A8
:10002800F3CF32F0F4CF33F0F6CF34F0F7CF35F02A
:10003800F8CF36F0F5CF37F0D8CF61F000010001E6
:10004800606FE0CF62F0EACF63F0E9CF64F0F2AA24
:1000580001D001D068D1F2A401D001D064D100014F
:1000680000016505D8A401D001D009D01B0EFC6E93
:10007800296E000E00010001656F295000D06FC085
:10008800EAFF000EE96E60C0EEFF61C0EEFF62C0DD
:10009800EEFFFCCFEEFF63C0EEFF64C0EEFFE2CFE1
:1000A800EEFFE1CFEEFFDACFEEFFD9CFEEFFF4CFD0
:1000B800EEFFF3CFEEFFF8CFEEFFF7CFEEFFF6CF70
:1000C800EEFFF5CFEEFFFBCFEEFFFACFEEFF000E0F
:1000D800E26E000EE16EE6CFEEFFE6CFEEFFE6CF72
:1000E800EEFFE6CFEEFFE6CFEEFFE6CFEEFFE6CF80
:1000F800EEFFE6CFEEFFE6CFEEFFE6CFEEFFE6CF70
:10010800EEFFE6CFEEFFE6CFEEFFE6CFEEFFE6CF5F
:10011800EEFFE6CFEEFFE6CFEEFFE6CFEEFFE6CF4F
:10012800EEFFE6CFEEFFE6CFEEFFE6CFEEFFE6CF3F
:10013800EEFFE6CFEEFFE6CFEEFFE6CFEEFFE6CF2F
:10014800EEFFE6CFEEFFE6CFEEFFE6CFEEFFE6CF1F
:10015800EEFFE6CFEEFFE6CFEEFFE6CFEEFFE6CF0F
:10016800EEFFE6CFEEFFE6CFEEFFE6CFEEFFE6CFFF
:10017800EEFFE6CFEEFFE6CFEEFFE6CFEEFFE6CFEF
:10018800EEFFE6CFEEFFE6CFEEFFE6CFEEFFE6CFDF
:10019800EEFFE6CFEEFF8A0ED76ECF0ED66EF29444
:1001A80000010001714B722B00010001702B00014E
:1001B80000017051060AD8A401D001D007D0296ED9
:1001C800000E00010001706F295000D000010001ED
:1001D8007051010D0001690EF324D96E0001000E63
:1001E800F420DA6EDF50000100016F6F000EE26E3E
:1001F800000EE16E6FC0EAFF120EE96EEECFE6FF69
:10020800EECFE6FFEECFE6FFEECFE6FFEECFE6FF5E
:10021800EECFE6FFEECFE6FFEECFE6FFEECFE6FF4E
:10022800EECFE6FFEECFE6FFEECFE6FFEECFE6FF3E
:10023800EECFE6FFEECFE6FFEECFE6FFEECFE6FF2E
:10024800EECFE6FFEECFE6FFEECFE6FFEECFE6FF1E
:10025800EECFE6FFEECFE6FFEECFE6FFEECFE6FF0E
:10026800EECFE6FFEECFE6FFEECFE6FFEECFE6FFFE
:10027800EECFE6FFEECFE6FFEECFE6FFEECFE6FFEE
:10028800EECFE6FFEECFE6FFEECFE6FFEECFE6FFDE
:10029800EECFE6FFEECFE6FFEECFE6FFEECFE6FFCE
:1002A800EECFE6FFEECFE6FFEECFE6FFEECFE6FFBE
:1002B800EECFE6FFEECFE6FFEECFE6FF6FC0EAFF38
:1002C800000EE96EEECF60F0EECF61F0EECF62F097
:1002D800EECFFCFFEECF63F0EECF64F0EECFE2FF9F
:1002E800EECFE1FFEECFDAFFEECFD9FFEECFF4FF8E
:1002F800EECFF3FFEECFF8FFEECFF7FFEECFF6FF2E
:10030800EECFF5FFEECFFBFFEECFFAFF64C0E9FFBB
:1003180063C0EAFF62C0E0FF00010001605161C0F4
:10032800D8FF100000D064C0E9FF63C0EAFF62C0D4
:10033800E0FF00010001605161C0D8FF100000EC2F
:1003480080F032EC8CF0A6EC8AF09CEC89F05FEC43
:1003580088F069EC92F037C0F5FF36C0F8FF35C079
:10036800F7FF34C0F6FF33C0F4FF32C0F3FF31C0EB
:10037800DAFF30C0D9FF2FC0E2FF2EC0E1FF2DC049
:10038800EAFF2CC0E9FF2BC0FBFF2AC0FAFF1100CF
:040398000BEF93F0E4
:10FEE40020415543554E2020202020202020202032
:10FEF4002020202000616C61726D655F6261747402
:10FF0400657269653D00616C61726D655F766974E7
:10FF1400657373653D00616C61726D655F736965DE
:10FF240067653D00616C61726D655F6875696C65DC
:10FF34003D00616C61726D655F667265696E3D005E
:10FF440054656D702E204875696C653A00616C616A
:10FF5400726D655F63686F633D006572726575728B
:10FF64005F63686F633D00582D4A6F7973746963EA
:10FF74006B3A00592D4A6F79737469636B3A006167
:10FF84006C61726D655F636C653D00616C61726D7F
:10FF9400655F6561753D0054656D702E2045617522
:10FFA4003A0063686F635F74696D653D0042617414
:10FFB40074657269653A00566974657373653A00CD
:10FFC4004D61726368653A0070616E6E656C3D00E8
:10FFD40042616467653A0053696567653A00282899
:10FFE4002129290043686F633A0020793D004E209F
:0CFFF40000783D00415200415600000022
:020000040001F9
:10000000000E276E000E266EF29EE6EC90F077EC66
:100010008BF0B4EC91F0E4EC91F063EC93F01E6E95
:10002000020E016E1E503BEC93F01E6E010E00019D
:100030000001806F1E50520EAD6EF28E8B948B922B
:100040008F901E6E000E00010001736F1E501E6E19
:10005000780E00010001746F1E501E6E000E00012C
:1000600000017F6F1E501E6E0D0E0B6E1E501F6E18
:10007000220E0C6E1F5077EC90F01E6E520E0A6E20
:100080001E5040EC92F01E6E200E0A6E1E5040EC88
:1000900092F01E6E560E0A6E1E5040EC92F01E6ECE
:1000A000200E0A6E1E5040EC92F01E6E420E0A6E3A
:1000B0001E5040EC92F01E6E0E0E0B6E1E501F6E08
:1000C000220E0C6E1F5077EC90F01E6E300E0A6EF2
:1000D0001E5040EC92F01E6E200E0A6E1E5040EC38
:1000E00092F01E6E300E0A6E1E5040EC92F01E6EA4
:1000F000200E0A6E1E5040EC92F01E6E300E0A6EFC
:100100001E5040EC92F01E6E0F0E0B6E1E501F6EB6
:10011000220E0C6E1F5077EC90F01E6E310E0A6EA0
:100120001E5040EC92F01E6E200E0A6E1E5040ECE7
:1001300092F01E6E310E0A6E1E5040EC92F01E6E52
:10014000200E0A6E1E5040EC92F01E6E310E0A6EAA
:100150001E5040EC92F03CC010F03DC011F03EC08B
:1001600012F03FC013F03A503C24146E3B503D2037
:10017000156E3A503E24166E3B503F20176E3EECF3
:1001800090F03CC045F03DC046F03EC047F03FC057
:1001900048F0010E40241E6E000E41201F6E1E1EF0
:1001A0001F1E1E4A1F2A3C501E24106E3D501F2049
:1001B000116E010E4024206E000E4120216E201E83
:1001C000211E204A212A3E502024126E3F50212019
:1001D000136E3CC022F03DC023F03A5022263B5023
:1001E00023224050222641502322010E2224146E45
:1001F000000E2320156E3EC024F03FC025F03A507B
:1002000024263B5025224050242641502522010E11
:100210002424166E000E2520176E2CEC8EF0000E96
:10022000116EC80E106E000E136E140E126E84EC5A
:1002300091F01E6E000E00010001666F1E501E6ED2
:10024000000E07010701046F1E5000D04904D8A416
:1002500001D001D01DD01E6E0B0E0B6E1E501F6EF6
:10026000000E0C6E1F5077EC90F0FF0E0B6E0A0E16
:100270000A6E14EC92F0070107010345010B010B14
:100280000A6E81EC8FF01E6E000E496E1E5000D07B
:100290001E6E000E0B6E1E501F6E000E0C6E1F5059
:1002A00077EC90F0FF0E0B6EC40E0A6E14EC92F019
:1002B00081B001D001D007D0FF0E0B6EFB0E0A6E8D
:1002C00014EC92F013D081B201D001D007D0FF0E10
:1002D0000B6EF80E0A6E14EC92F008D0FF0E0B6E47
:1002E000F20E0A6E14EC92F001D000D01E6E010ED8
:1002F0000B6E1E501F6E000E0C6E1F5077EC90F0B0
:10030000FF0E0B6EDB0E0A6E14EC92F081B401D07E
:1003100001D007D01E6E310E0A6E1E5040EC92F0D6
:1003200007D01E6E300E0A6E1E5040EC92F000D0C8
:100330001E6E020E0B6E1E501F6E000E0C6E1F50B6
:1003400077EC90F0FF0E0B6E9B0E0A6E14EC92F0A1
:100350001E6E020E016E1E5091EC92F00A6E81EC40
:100360008FF01E6E030E0B6E1E501F6E000E0C6E75
:100370001F5077EC90F0FF0E0B6E440E0A6E14ECDB
:1003800092F01E6E030E016E1E5091EC92F00A6EFA
:1003900081EC8FF01E6E040E0B6E1E501F6E000E51
:1003A0000C6E1F5077EC90F0FF0E0B6EE80E0A6E8D
:1003B00014EC92F081B601D001D007D01E6E310E40
:1003C0000A6E1E5040EC92F007D01E6E300E0A6E80
:1003D0001E5040EC92F000D01E6E050E0B6E1E50AB
:1003E0001F6E000E0C6E1F5077EC90F0FF0E0B6E20
:1003F000BB0E0A6E14EC92F084B001D001D004D090
:1004000000010001732B00D084B201D001D004D0D0
:1004100000010001730700D073C00AF081EC8FF077
:100420001E6E060E0B6E1E501F6E000E0C6E1F50C1
:1004300077EC90F0FF0E0B6EB10E0A6E14EC92F09A
:1004400084B401D001D004D000010001742B00D08D
:1004500084B601D001D004D000010001740700D09F
:1004600074C00AF081EC8FF01E6E070E0B6E1E50EA
:100470001F6E000E0C6E1F5077EC90F084B801D008
:1004800001D007D0FF0E0B6EE20E0A6E14EC92F054
:1004900007D0FE0E0B6EF30E0A6E14EC92F000D035
:1004A0001E6E080E0B6E1E501F6E000E0C6E1F503F
:1004B00077EC90F0FF0E0B6ED40E0A6E14EC92F0F7
:1004C000000100017F6701D001D007D0FE0E0B6E46
:1004D000E40E0A6E14EC92F01FD01E6E000E286E11
:1004E0001E5010D02850010D0001750EF324D96E56
:1004F0000001000EF420DA6EDF500A6E81EC8FF0FE
:10050000282A00D0000100017F51285CD8A001D02A
:1005100001D0E8D701D000D01E6E090E0B6E1E5020
:100520001F6E000E0C6E1F5077EC90F0FF0E0B6EDE
:100530006B0E0A6E14EC92F01E6E0A0E016E1E50C7
:1005400091EC92F00A6E81EC8FF01E6E0A0E0B6E2B
:100550001E501F6E000E0C6E1F5077EC90F0FF0EB9
:100560000B6E770E0A6E14EC92F01E6E0B0E016E7F
:100570001E5091EC92F00A6E81EC8FF000010001A8
:100580006605D8A401D001D025D01E6E000E0B6EDA
:100590001E501F6E140E0C6E1F5077EC90F0FF0E65
:1005A0000B6EF50E0A6E14EC92F067C00AF081EC47
:1005B0008FF0FF0E0B6EEE0E0A6E14EC92F068C018
:1005C0000AF081EC8FF067C00BF068C00CF0C1EC52
:1005D0008DF002D000F000D01E6E0A0E016E1E508B
:1005E00091EC92F01F6E1F28D8A401D001D057D0F3
:1005F0003CC01EF03DC01FF040501E2641501F223F
:10060000010E4524206E000E4620216E2150800AE6
:10061000226E1E50205C1F50800A2258D8B001D094
:1006200001D03DD045C010F046C011F047C012F0D7
:1006300048C013F03A504524146E3B504620156EC6
:100640003A504724166E3B504820176E05EC90F048
:10065000010E4524106E000E4620116E47C012F0A8
:1006600048C013F045C01EF046C01FF03A501E2689
:100670003B501F22010E1E24146E000E1F20156E0B
:100680003A504724166E3B504820176E3EEC90F0CF
:10069000010E4524456E000E4620466E00D01E6EAB
:1006A0000A0E016E1E5091EC92F00009D8A401D000
:1006B00001D05BD0FF0E45241E6EFF0E46201F6E3C
:1006C00040C020F041C021F0201E211E204A212AD6
:1006D0003C5020263D5021222150800A226E1E507F
:1006E000205C1F50800A2258D8B001D001D03DD0E4
:1006F00045C010F046C011F047C012F048C013F0DA
:100700003A504524146E3B504620156E3A5047240B
:10071000166E3B504820176E05EC90F0FF0E4524F6
:10072000106EFF0E4620116E47C012F048C013F045
:1007300045C01EF046C01FF03A501E263B501F22F7
:10074000FF0E1E24146EFF0E1F20156E3A50472414
:10075000166E3B504820176E3EEC90F0FF0E45247D
:10076000456EFF0E4620466E00D01E6E0B0E016ECB
:100770001E5091EC92F00009D8A401D001D057D0BE
:100780003EC01EF03FC01FF040501E2641501F22A9
:10079000010E4724206E000E4820216E2150800A51
:1007A000226E1E50205C1F50800A2258D8B001D003
:1007B00001D03DD045C010F046C011F047C012F046
:1007C00048C013F00A0E4524146E000E4620156E24
:1007D0003A504724166E3B504820176E05EC90F0B7
:1007E00045C010F046C011F0010E4724126E000EF5
:1007F0004820136E3A504524146E3B504620156E27
:1008000047C01EF048C01FF03A501E263B501F2222
:10081000010E1E24166E000E1F20176E3EEC90F087
:10082000010E4724476E000E4820486E00D01E6E11
:100830000B0E016E1E5091EC92F01F6E1F28D8A473
:1008400001D001D05BD0FF0E47241E6EFF0E482062
:100850001F6E40C020F041C021F0201E211E204A02
:10086000212A3E5020263F5021222150800A226E0C
:100870001E50205C1F50800A2258D8B001D001D0F1
:100880003DD045C010F046C011F047C012F048C03E
:1008900013F03A504524146E3B504620156E3A50E2
:1008A0004724166E3B504820176E05EC90F045C06B
:1008B00010F046C011F0FF0E4724126EFF0E4820C4
:1008C000136E3A504524146E3B504620156E47C0B7
:1008D0001EF048C01FF03A501E263B501F22FF0E4C
:1008E0001E24166EFF0E1F20176E3EEC90F0FF0EBA
:1008F0004724476EFF0E4820486E00D01E6E0B0E38
:100900000B6E1E501F6E000E0C6E1F5077EC90F099
:10091000FF0E0B6ECC0E0A6E14EC92F004C70AF0B8
:1009200081EC8FF0070107010429D8A401D001D080
:100930008DD4B4EC91F0E4EC91F0EFD0000E116E98
:10094000C80E106E000E136E140E126E84EC91F031
:100950001E6E0B0E0B6E1E501F6E000E0C6E1F5087
:1009600077EC90F0FF0E0B6E8F0E0A6E14EC92F087
:10097000070107010351010B0A6E81EC8FF01E6E17
:100980000C0E0B6E1E501F6E000E0C6E1F5077EC7F
:1009900090F0FF0E0B6E280E0A6E14EC92F0070119
:1009A0000701D8900331010B0A6E81EC8FF01E6EA7
:1009B0000D0E0B6E1E501F6E000E0C6E1F5077EC4E
:1009C00090F0FF0E0B6E510E0A6E14EC92F00701C0
:1009D00007010341E8423F0B010B0A6E81EC8FF0E7
:1009E0001E6E0E0E0B6E1E501F6E000E0C6E1F50F4
:1009F00077EC90F0FE0E0B6EF90E0A6E14EC92F08E
:100A0000070107010339E8461F0B010B0A6E81EC51
:100A10008FF01E6E0B0E0B6E1E501F6E140E0C6EA2
:100A20001F5077EC90F0FF0E0B6E830E0A6E14ECE5
:100A300092F00701070103390F0B010B0A6E81ECDD
:100A40008FF01E6E0C0E0B6E1E501F6E140E0C6E71
:100A50001F5077EC90F0FF0E0B6E360E0A6E14EC02
:100A600092F0070107010339E842070B010B0A6EF8
:100A700081EC8FF01E6E0D0E0B6E1E501F6E140E4D
:100A80000C6E1F5077EC90F0FF0E0B6E1A0E0A6E74
:100A900014EC92F0070107010345E846030B010B34
:100AA0000A6E81EC8FF01E6E0E0E0B6E1E501F6EC6
:100AB000140E0C6E1F5077EC90F0FF0E0B6E5E0E56
:100AC0000A6E14EC92F0070107010541E8423F0B62
:100AD000010B0A6E81EC8FF01E6E0F0E0B6E1E5016
:100AE0001F6E140E0C6E1F5077EC90F0FF0E0B6E05
:100AF000A60E0A6E14EC92F009C70AF081EC8FF092
:100B000008C70AF081EC8FF007C70AF081EC8FF07C
:100B100006C70AF081EC8FF000D007010701042915
:100B2000D8B401D001D00AD700D0B4EC91F0E4ECF5
:100B300091F01E6E0D0E0B6E1E501F6E220E0C6E6F
:100B40001F5077EC90F01E6E520E0A6E1E5040EC55
:100B500092F01E6E200E0A6E1E5040EC92F01E6E39
:100B6000560E0A6E1E5040EC92F01E6E200E0A6E5B
:100B70001E5040EC92F01E6E420E0A6E1E5040EC6B
:100B800092F01E6E0E0E0B6E1E501F6E220E0C6E1D
:100B90001F5077EC90F01E6E300E0A6E1E5040EC27
:100BA00092F01E6E200E0A6E1E5040EC92F01E6EE9
:100BB000300E0A6E1E5040EC92F01E6E200E0A6E31
:100BC0001E5040EC92F01E6E300E0A6E1E5040EC2D
:100BD00092F01E6E0F0E0B6E1E501F6E220E0C6ECC
:100BE0001F5077EC90F01E6E310E0A6E1E5040ECD6
:100BF00092F01E6E200E0A6E1E5040EC92F01E6E99
:100C0000310E0A6E1E5040EC92F01E6E200E0A6EDF
:100C10001E5040EC92F01E6E310E0A6E1E5040ECDB
:100C200092F03CC010F03DC011F03EC012F03FC049
:100C300013F03A503C24146E3B503D20156E3A5050
:100C40003E24166E3B503F20176E3EEC90F03CC0A9
:100C500045F03DC046F03EC047F03FC048F0010EB1
:100C600040241E6E000E41201F6E1E1E1F1E1E4AB7
:100C70001F2A3C501E24106E3D501F20116E010E85
:100C80004024206E000E4120216E201E211E204A8D
:100C9000212A3E502024126E3F502120136E3CC06A
:100CA00022F03DC023F03A5022263B5023224050F0
:100CB000222641502322010E2224146E000E2320EE
:100CC000156E3EC024F03FC025F03A5024263B501C
:100CD00025224050242641502522010E2424166E40
:100CE000000E2520176E2CEC8EF0000E116EC80E33
:100CF000106E000E136E140E126E84EC91F026EF3F
:100D000081F026EF81F026EF81F012000001896F5B
:100D1000010E00010001656F000189510001896F1A
:100D2000010E00010001696F000189510001896F06
:100D3000020E000100016A6F000189510001896FF4
:100D4000030E000100016B6F000189510001896FE2
:100D5000040E000100016C6F000189510001896FD0
:100D6000050E000100016D6F000189510001896FBE
:100D7000060E000100016E6F000189510001896FAC
:100D8000050E00010001706F000189510001000192
:100D90007051010D0001690EF324D96E0001000E9F
:100DA000F420DA6EDF50000100016F6FFCCF8AF093
:100DB000020EFC6E000E00010001816F000E0001AA
:100DC0000001826F010E00010001836F81C086F077
:100DD00082C087F083C088F00001000E000100018E
:100DE000856F0001860E0001846F84C0D9FF85C025
:100DF000DAFFDF50FD6E00010001844B852B84C0BB
:100E0000D9FF85C0DAFFDF50FE6E00010001844B80
:100E1000852B84C0D9FF85C0DAFFDF50FF6E070E37
:100E2000FC6E640E00010001816F180E00010001CC
:100E3000826F010E00010001836F81C086F082C0C5
:100E400087F083C088F00001000E00010001856F6B
:100E50000001860E0001846F84C0D9FF85C0DAFFCF
:100E6000DF50FD6E00010001844B852B84C0D9FF4B
:100E700085C0DAFFDF50FE6E00010001844B852B38
:100E800084C0D9FF85C0DAFFDF50FF6E0C0EFC6E08
:100E90004C0E00010001816F150E00010001826FF0
:100EA000010E00010001836F81C086F082C087F0CF
:100EB00083C088F00001000E00010001856F000171
:100EC000860E0001846F84C0D9FF85C0DAFFDF5031
:100ED000FD6E00010001844B852B84C0D9FF85C0C5
:100EE000DAFFDF50FE6E00010001844B852B84C0C9
:100EF000D9FF85C0DAFFDF50FF6E110EFC6E380E91
:100F000000010001816F130E00010001826F010ECC
:100F100000010001836F81C086F082C087F083C02A
:100F200088F00001000E00010001856F0001860EAF
:100F30000001846F84C0D9FF85C0DAFFDF50FD6EE9
:100F400000010001844B852B84C0D9FF85C0DAFFE6
:100F5000DF50FE6E00010001844B852B84C0D9FF59
:100F600085C0DAFFDF50FF6E160EFC6EBE0E00016C
:100F70000001816F100E00010001826F010E00015F
:100F80000001836F81C086F082C087F083C088F043
:100F90000001000E00010001856F0001860E0001B6
:100FA000846F84C0D9FF85C0DAFFDF50FD6E000179
:100FB0000001844B852B84C0D9FF85C0DAFFDF5048
:100FC000FE6E00010001844B852B84C0D9FF85C0D3
:100FD000DAFFDF50FF6E1B0EFC6ED20E0001000127
:100FE000816F240E00010001826F010E00010001DB
:100FF000836F81C086F082C087F083C088F00001D3
:10100000000E00010001856F0001860E0001846F53
:1010100084C0D9FF85C0DAFFDF50FD6E00010001FA
:10102000844B852B84C0D9FF85C0DAFFDF50FE6E6C
:1010300000010001844B852B84C0D9FF85C0DAFFF5
:10104000DF50FF6E8AC0FCFF0001896F020E0101B4
:101050000101036F000189510001896F070E020130
:101060000201036F000189510001896F0C0E030119
:101070000301036F000189510001896F110E040102
:101080000401036F000189510001896F160E0501EB
:101090000501036F000189510001896F1B0E0601D4
:1010A0000601036F00018951000E00010001726FFB
:1010B000000E0001716F010ED56EF28A120081A43C
:1010C00001D001D013D0000100017351D8B401D078
:1010D00001D00CD003C701F0000E036E060E026EA5
:1010E000A3EC93F007010701036F0CD003C701F0D5
:1010F000000E036E060E026E94EC93F007010701DA
:10110000036F00D0000100017F6701D001D00CD037
:1011100003C701F0000E036E040E026EA3EC93F001
:1011200007010701036F0CD003C701F0000E036E27
:10113000040E026E94EC93F007010701036F00D0D8
:1011400081B601D001D033D007010701064B072B30
:10115000B90E07010701065D0B0E07010759D8A05C
:1011600001D001D00CD003C701F0000E036E020EB7
:10117000026EA3EC93F007010701036F00D0710E1C
:1011800007010701065D170E07010759D8A001D016
:1011900001D01FD003C701F0000E036E020E026ED5
:1011A000A3EC93F007010701056F13D012D00701DC
:1011B000070107510611D8A401D001D004D00701BE
:1011C0000701064B072B070107010607D8A00707F1
:1011D00000D084B801D001D013D0000100017351B8
:1011E000D8B401D001D00CD003C701F0000E036EBB
:1011F000050E026EA3EC93F007010701036F0BD0FD
:1012000003C701F0000E036E050E026E94EC93F01E
:1012100007010701036F066E020E016E065091EC86
:1012200092F0076EC90E075CD8A001D001D00CD097
:1012300003C701F0000E036E000E026EA3EC93F0E4
:1012400007010701036F0BD003C701F0000E036E07
:10125000000E026E94EC93F007010701036F066E17
:10126000030E016E065091EC92F0076EC90E075CFA
:10127000D8A001D001D00CD003C701F0000E036E3E
:10128000010E026EA3EC93F007010701036F0CD06F
:1012900003C701F0000E036E010E026E94EC93F092
:1012A00007010701036F00D0190E000100017461EE
:1012B00001D001D00CD003C701F0000E036E030E65
:1012C000026EA3EC93F007010701036F0CD003C774
:1012D00001F0000E036E030E026E94EC93F0070112
:1012E0000701036F00D039503810000ED8B4010E3A
:1012F000386E396A84A201D002D0010E01D0000EEE
:10130000066E84A001D002D0010E01D0000E06149A
:10131000E8A001D001D0D3D6066E000E0701070168
:10132000036F0650066E000E07010701056F065099
:10133000C6D6C5D6C4D6120000D09EA801D001D012
:10134000FCD700D0540EAD6E00D0ACA201D001D0BD
:10135000FCD701D000D09EA801D001D0FCD700D08E
:10136000410EAD6E00D0ACA201D001D0FCD701D0AF
:1013700000D09EA801D001D0FCD700D0430EAD6EA6
:1013800000D0ACA201D001D0FCD701D000D09EA8E3
:1013900001D001D0FCD700D0480EAD6E00D0ACA279
:1013A00001D001D0FCD701D000D09EA801D001D03F
:1013B000FCD700D0450EAD6E00D0ACA201D001D05C
:1013C000FCD701D000D09EA801D001D0FCD700D01E
:1013D000340EAD6E00D0ACA201D001D0FCD701D04C
:1013E00000D09EA801D001D0FCD700D05F0EAD6E1A
:1013F00000D0ACA201D001D0FCD701D000D09EA873
:1014000001D001D0FCD700D0450EAD6E00D0ACA20B
:1014100001D001D0FCD701D000D09EA801D001D0CE
:10142000FCD700D04E0EAD6E00D0ACA201D001D0E2
:10143000FCD701D000D09EA801D001D0FCD700D0AD
:101440005F0EAD6E00D0ACA201D001D0FCD701D0B0
:1014500000D09EA801D001D0FCD700D0430EAD6EC5
:1014600000D0ACA201D001D0FCD701D000D09EA802
:1014700001D001D0FCD700D04F0EAD6E00D0ACA291
:1014800001D001D0FCD701D000D09EA801D001D05E
:10149000FCD700D0550EAD6E00D0ACA201D001D06B
:1014A000FCD701D000D09EA801D001D0FCD700D03D
:1014B000520EAD6E00D0ACA201D001D0FCD701D04D
:1014C00000D09EA801D001D0FCD700D0530EAD6E45
:1014D00000D0ACA201D001D0FCD701D000D09EA892
:1014E00001D001D0FCD700D00A0EAD6E00D0ACA266
:1014F00001D001D0FCD701D000D09EA801D001D0EE
:10150000FCD700D00D0EAD6E00D0ACA201D001D042
:10151000FCD700D0000E026E000E016EE80E015CDA
:10152000FD0E0258D8A001D001D002D005D704D7B3
:10153000014A022AE80E015CFD0E0258D8A001D033
:1015400001D0F6D7F9D6F8D6F7D61200000100017F
:101550006605D8A401D001D030D0CA0E0001000128
:10156000676501D001D029D0D10E0001000167616B
:1015700001D001D022D0700E00010001686501D0B9
:1015800001D009D0790E00010001686101D001D0BD
:1015900002D08B8400D0780E00010001686501D074
:1015A00001D00BD07F0E00010001686101D001D095
:1015B00004D08B9402D001D000D000010001660558
:1015C000D8A401D001D030D0D60E0001000167654B
:1015D00001D001D029D0DD0E00010001676101D0EA
:1015E00001D022D0700E00010001686501D001D049
:1015F00009D0790E00010001686101D001D002D04C
:101600008B8200D0780E00010001686501D001D006
:101610000BD07F0E00010001686101D001D004D021
:101620008B9202D001D000D0000100016605D8A441
:1016300001D001D030D0E20E00010001676501D079
:1016400001D029D0E90E00010001676101D001D06D
:1016500022D0700E00010001686501D001D009D0D0
:10166000790E00010001686101D001D002D08F80A5
:1016700000D0780E00010001686501D001D00BD0C8
:101680007F0E00010001686101D001D004D08F906D
:1016900002D001D000D0000100016605D8A401D01D
:1016A00001D054D7C70E00010001676501D001D0F9
:1016B0004DD7D20E00010001676101D001D046D79D
:1016C000130E00010001686501D001D03FD71E0E46
:1016D00000010001686101D001D038D7070107017E
:1016E000041F34D733D732D731D730D712000B6E1F
:1016F000000E0E6E0B50000E906E1F0E916E000EBF
:10170000996E000E9A6E919A918C91980B6E040EC0
:10171000016E0B5050EC93F091880B6E0C0E016E25
:101720000B5050EC93F017D00E2A0B6E0C0E016E7E
:101730000B5050EC93F0C80E0E6401D001D00BD0CA
:101740008B828F808B94F29EFFD70B6E000E0E6EF5
:101750000B5001D000D0B4EC92F00009D8B401D005
:1017600001D0E2D700D00B6E270E066E0B500C6E28
:101770000F0E076E0C500D6E210E086E0D503DECD5
:101780008FF00B6E000E066E0B500C6E000E076E87
:101790000C500D6E220E086E0D503DEC8FF00B6E4E
:1017A000000E066E0B500C6E000E076E0C500D6E88
:1017B000240E086E0D503DEC8FF00B6E000E066E81
:1017C0000B500C6E7B0E076E0C500D6E400E086EAB
:1017D0000D503DEC8FF00B6E280E066E0B500C6E0C
:1017E000000E076E0C500D6E410E086E0D503DEC54
:1017F0008FF00B6E000E066E0B500C6E800E076E97
:101800000C500D6E420E086E0D503DEC8FF00B6EBD
:10181000280E066E0B500C6E000E076E0C500D6EEF
:10182000430E086E0D503DEC8FF00B6E800E066E71
:101830000B50D3EC92F00B6E9C0E066E0B50D3EC5B
:1018400092F00B6EA00E066E0B50D3EC92F00B6E66
:10185000020E066E0B500C6E700E076E0C5053ECA1
:1018600091F01200096E000E00010001666F095030
:1018700000D08F868F980B0E026EB80E016E74EC3E
:1018800093F0160EC06E010EC26E030EC26E00D033
:10189000C2B201D001D0FCD7C4CF0EF0C3CF0FF03D
:1018A0000F500F0BD8B401D001D009D0096E000E33
:1018B0000E6E0950096E000E0F6E095000D0090E11
:1018C0000E6401D001D06CD08F968F880B0E026E03
:1018D000B80E016E74EC93F0160EC06E050EC26E5B
:1018E000070EC26E00D0C2B201D001D0FCD7C4CF67
:1018F00010F0C3CF11F011500F0BD8B401D001D0AC
:1019000009D0096E000E106E0950096E000E116E9E
:10191000095000D0130E106401D001D039D00E5000
:101920000B6E0F500A6E10500D6E11500C6EB20EF1
:101930000A240A6EF30E0B200B6E9C0E0C240C6E08
:10194000E60E0D200D6E0AC001F00BC002F0000E75
:10195000046EF60E036E1DEC91F0015000010001C3
:10196000676F0CC001F00DC002F0010E046E990EFD
:10197000036E1DEC91F0015000087F0F0001000183
:10198000686F096E010E00010001666F095071D782
:10199000096E000E00010001666F09506AD769D711
:1019A000096E000E00010001666F095062D761D711
:1019B00060D7120095828C968C94000E026E640E95
:1019C000016E84EC93F08C86056E000E066E055059
:1019D00000D0030E026EE80E016E84EC93F0062A2E
:1019E00083A001D001D005D0056E410E066E0550D2
:1019F00000D0400E066401D001D0EBD783A001D007
:101A000001D050D0056E000E076E0550056E000E19
:101A1000086E0550056E000E096E0550056E000E2D
:101A2000086E0550070E086401D001D002D026D000
:101A300025D083A201D001D003D009500109096E3D
:101A400009500924096E000E026E640E016E84ECCA
:101A500093F08C84010E026EF40E016E84EC93F010
:101A60008C94010E026E900E016E84EC93F0082AA5
:101A7000070E086401D001D0DCD700D00750010D5B
:101A8000F3500324D96EF4500420DA6E09C0DFFF4E
:101A9000072A83B001D001D0BDD700D0075005D0B0
:101AA00004D003D0000E01D000D012000BC001F012
:101AB000026A000E046E060E036E8BEC8EF00C5064
:101AC000280D0150F3240E6E0250F4200F6E0EC04C
:101AD00006F00F50076E0D6E240E086E0D503DEC93
:101AE0008FF02CD00D6EF50E066E0D50D3EC92F0EB
:101AF00047D00D6EF40E066E0D50D3EC92F040D030
:101B00000D6EF30E066E0D50D3EC92F039D00D6EC3
:101B1000F20E066E0D50D3EC92F032D00D6EF10E37
:101B2000066E0D50D3EC92F02BD00D6EF00E066EBB
:101B30000D50D3EC92F024D023D022D00BC001F072
:101B4000026A000E046E060E036EE9EC8EF002507F
:101B5000000AD8B401D014D00150000AD8B4C2D7BA
:101B6000010AD8B4C6D7030AD8B4CAD7010AD8B470
:101B7000CED7070AD8B4D2D7010AD8B4D6D700D066
:101B800012000BC001F0026A000E046E060E036E16
:101B90008BEC8EF00C50280D0150F3240E6E025089
:101BA000F4200F6E0EC006F00F50076E0D6E240E5F
:101BB000086E0D503DEC8FF02CD00D6EFD0E066EB4
:101BC0000D50D3EC92F047D00D6EFC0E066E0D500A
:101BD000D3EC92F040D00D6EFB0E066E0D50D3ECA0
:101BE00092F039D00D6EFA0E066E0D50D3EC92F0D5
:101BF00032D00D6EF90E066E0D50D3EC92F02BD054
:101C00000D6EF80E066E0D50D3EC92F024D023D05A
:101C100022D00BC001F0026A000E046E060E036EA5
:101C2000E9EC8EF00250000AD8B401D014D0015073
:101C3000000AD8B4C2D7010AD8B4C6D7030AD8B4A8
:101C4000CAD7010AD8B4CED7070AD8B4D2D7010A66
:101C5000D8B4D6D700D01200000E1D6E000E1C6E38
:101C6000000E1B6E000E1A6E10C01CF011C01DF08D
:101C700044D011501D1802E110501C18D8B401D0E6
:101C800001D00FD0FF0E1424186EFF0E1520196E10
:101C90001D50191802E11C501818D8A401D001D009
:101CA0001CD012C01AF013C01BF009D01CC00BF0DE
:101CB0001AC00CF0C1EC8DF01A4A1B2A00D01B5040
:101CC000800A186E16501A5C1750800A1858D8A04F
:101CD00001D001D0EBD70ED00DD01CC00BF012C03C
:101CE0000CF0C1EC8DF01CC00BF016C00CF0C1EC78
:101CF0008DF000D01C4A1D2A00D01D50800A186E9D
:101D000014501C5C1550800A1858D8A001D001D07E
:101D1000B0D700D01200056E000E076E055004AE5D
:101D200001D001D009D0036C041ED8B0042A056E7E
:101D3000010E076E055000D002AE01D001D007D0D1
:101D4000016C021ED8B0022A010E071A00D0000E44
:101D5000096E000E086E04500310D8B401D001D0F3
:101D600028D0056E010E066E055005D0D8900336BA
:101D70000436062A00D004AE01D001D0F7D701D036
:101D800000D0D890083609360350015C0450025840
:101D9000D8A001D001D006D00350015E0450025AF1
:101DA000088000D0D89004320332062EEAD701D042
:101DB00000D00750D8B401D001D005D0086C091E5E
:101DC000D8B0092A00D008C001F009C002F000D044
:101DD0001200056E000E076E055002AE01D001D054
:101DE00009D0016C021ED8B0022A056E010E076EE2
:101DF000055000D004AE01D001D005D0036C041E04
:101E0000D8B0042A00D004500310D8B401D001D0B7
:101E100024D0056E010E066E055005D0D89003360D
:101E20000436062A00D004AE01D001D0F7D701D085
:101E300000D00350015C04500258D8A001D001D05A
:101E400005D00350015E0450025A00D0D8900432ED
:101E50000332062EEED701D000D00750D8B401D0FF
:101E600001D005D0016C021ED8B0022A00D001C0FA
:101E700001F002C002F000D01200096E000E0A6EDE
:101E80000950C4EC8FF0096E0904D8A401D001D028
:101E900035D0096E0C0E016E095050EC93F006C05F
:101EA00001F0BDEC93F0C4EC8FF0096E0904D8A4E6
:101EB00001D001D023D0096E0C0E016E095050ECF8
:101EC00093F007C001F0BDEC93F0C4EC8FF0096E05
:101ED0000904D8A401D001D011D0096E0C0E016EF6
:101EE000095050EC93F008C001F0B1EC93F0096E8A
:101EF000010E0A6E095002D001D000D00A5000D065
:101F000012000A380F0B0C6E090E0C6401D001D0C0
:101F100004D00C50170F0C6E07D00C50100F0C6E25
:101F200003D002D000F000D00CC006F00B6EC00E43
:101F3000076E0B5053EC91F00009D8B401D001D0DA
:101F4000F1D700D00A500F0B0C6E090E0C6401D0B3
:101F500001D004D00C50170F0C6E07D00C50100F8E
:101F60000C6E03D002D000F000D00CC006F00B6E57
:101F7000C00E076E0B5053EC91F00009D8B401D09D
:101F800001D0F1D700D01200026E000E036E025095
:101F9000026E020E056E02502ED0996891809196C5
:101FA000919200F087CF04F0918291860450030B48
:101FB000046E0450030AD8B401D001D016D0032A0D
:101FC000026E0C0E016E025050EC93F0F90E036499
:101FD00001D001D010D0F29E8B948B828F80026E44
:101FE000000E056E025007D006D0026E010E056E7F
:101FF000025001D000D00550020AD8B401D001D05F
:10200000CCD700D0055000D01200000E1A6E000E82
:10201000196E000E1C6E000E1B6E10C019F011C060
:102020001AF01ED012C01BF013C01CF009D019C04A
:102030000BF01BC00CF056EC8DF01B4A1C2A00D094
:102040001C50800A186E16501B5C1750800A1858D6
:10205000D8A001D001D0EBD700D0194A1A2A00D05D
:102060001A50800A186E1450195C1550800A1858BE
:10207000D8A001D001D0D6D700D01200000E1A6E21
:10208000000E196E000E1C6E000E1B6E10C019F0B3
:1020900011C01AF01ED012C01BF013C01CF009D0E2
:1020A00019C00BF01BC00CF0C1EC8DF01B4A1C2AB0
:1020B00000D01C50800A186E16501B5C1750800A06
:1020C0001858D8A001D001D0EBD700D0194A1A2A4D
:1020D00000D01A50800A186E1450195C1550800AEE
:1020E0001858D8A001D001D0D6D700D012007B0E4E
:1020F0000F6E000E0E6E0F0E0B6401D001D005D0D6
:102100000D6E000E0B6E0D5000D0270E0C6401D02A
:1021100001D005D00D6E000E0C6E0D5000D00B508E
:10212000280D0C50F326000EF4220E50F3240E6EF0
:102130000F50F4200F6E02D000F000D00EC006F059
:102140000F50076E0D6E240E086E0D503DEC8FF093
:102150000009D8B401D001D0EFD700D01200A00EF2
:102160000F010F01266F000E0F010F01256F000EEA
:102170000F010F01246F000E0F010F01236F0F01DC
:102180000F0125810F010F0125830F010F01258507
:102190000F010F0125870F010F0124850F010F018A
:1021A00024878B848B828F809494949298909896B5
:1021B0009898959495969A9EF19E0F010F01538DD4
:1021C000C9EC93F0D08E180EF06E1200A00E0F0125
:1021D0000F01266F000E0F010F01256F000E0F017A
:1021E0000F01246F000E0F010F01236F0F010F016C
:1021F00025810F010F0125830F010F0125850F0197
:102200000F0125870F010F0124850F010F0124877E
:102210008B848B828F8094949492989098969898BF
:10222000959495969A9EF19E0F010F01538DD4ECD3
:1022300093F0D08E180EF06E1200000E076E000E96
:10224000066E04500310D8B401D001D027D0056E1B
:10225000010E086E055005D0D89003360436082AC2
:1022600000D004AE01D001D0F7D701D000D0D89073
:10227000063607360350015C04500258D8A001D03E
:1022800001D006D00350015E0450025A068000D0EF
:10229000D89004320332082EEAD700D006C001F0ED
:1022A00007C002F01200086E000E096E0850C4EC60
:1022B0008FF0086E0804D8A401D001D022D0086E97
:1022C0000C0E016E085050EC93F006C001F0BDEC0E
:1022D00093F0C4EC8FF0086E0804D8A401D001D0AC
:1022E00010D0086E0C0E016E085050EC93F007C031
:1022F00001F0B1EC93F0086E010E096E085001D0A8
:1023000000D0095000D0120010C00BF01250FC0F8A
:102310000C6EC1EC8DF010C00BF01250FD0F0C6E66
:10232000C1EC8DF010C00BF01250FE0F0C6EC1EC22
:102330008DF010C00BF012040C6EC1EC8DF010C0CB
:102340000BF012C00CF0C1EC8DF010C00BF012506D
:10235000020F0C6EC1EC8DF010C00BF01250030F89
:102360000C6EC1EC8DF012000B6E000E066E0B5061
:102370000C6E000E076E0C500D6E240E086E0D5084
:102380003DEC8FF0000E0F6E000E0E6E0F50800AA7
:102390000E10D8A401D001D002D015D014D00B6EED
:1023A000000E066E0B500C6EC00E076E0C5053ECF8
:1023B00091F00E4A0F2A0F50800A0E10D8A401D0B7
:1023C00001D0EDD700D012000B6E000E066E0B5040
:1023D0000C6E800E076E0C500D6E240E086E0D50A4
:1023E0003DEC8FF0800E0F6E000E0E6E0F50F80A4F
:1023F0000E10D8A401D001D002D015D014D00B6E8D
:10240000000E066E0B500C6EC00E076E0C5053EC97
:1024100091F00E4A0F2A0F50F80A0E10D8A401D0DE
:1024200001D0EDD700D012001CD002D000F000D0B7
:102430000AC0F6FF0BC0F7FF000EF86E0800F5505B
:10244000E00F066E0C6EC00E076E0C5053EC91F050
:102450000009D8B401D001D0E9D700D00A4A0B2A2C
:1024600000D00AC0F6FF0BC0F7FF000EF86E0800A0
:10247000F5500009D8A401D001D0DAD700D012005D
:10248000200E0A6001D001D005D00B6E3F0E0A6EFF
:102490000B5000D09F0E0A6401D001D005D00B6E06
:1024A0003F0E0A6E0B5000D00A50E00F0A6E02D0A9
:1024B00000F000D00AC006F00B6EC00E076E0B5085
:1024C00053EC91F00009D8B401D001D0F1D700D07D
:1024D00012000001000E046E0001750E036EDAECAE
:1024E0008CF00B6E0B50D8B401D001D010D00A0E76
:1024F0000B6001D001D003D00BC07FF0EAD70A6E89
:10250000000E000100017F6F0A50E3D7E2D70A6E88
:10251000000E000100017F6F0A50DBD7DAD7D9D750
:102520001200000EC16E160EC06E01501F0B016E20
:102530000144E846FC0B016E01500109C26EC282E3
:1025400000D0C2B201D001D0FCD7C3A001D001D0CD
:1025500005D0026E000E036E025003D0C4CF03F00C
:1025600000D0035000D0120099689180919691920A
:1025700000F000F000F087CF02F0918291860250C7
:10258000030B030AD8A401D001D005D0016E010EBF
:10259000026E015005D0016E000E026E015000D097
:1025A000025000D01200076E000E086E0750C4ECF7
:1025B0008FF0076E0704D8A401D001D010D0076EA9
:1025C0000C0E016E075050EC93F006C001F0B1EC18
:1025D00093F0076E010E086E075001D000D0120074
:1025E0000FD000018A6F010E4A6E00018A5112D08D
:1025F00000018A6F010E4B6E00018A510BD00AD088
:10260000000100018951010AD8B4EBD7030AD8B4FC
:10261000EFD700D0120000EE42F0080EEE6AE80696
:10262000FDE1BE0EF66E270EF76E010EF86E00EE9F
:1026300038F010EE0AF00900F5CFEEFFE550E1505A
:10264000FAE1000124EF93F0AFEC90F086EC86F015
:1026500000018B6F010E00010001896F00018B5199
:102660000001F0EC92F0D58EF284F28E00F0FED7ED
:10267000FDD7CCEF01F00BD0026E010E4A6E025076
:102680000ED0026E010E4B6E025009D008D00150E0
:10269000010AD8B4F1D7030AD8B4F3D700D0120096
:1026A0000CD000F000F000F000F000F000F000F0BE
:1026B00000F000F000F0010600D0016601D001D06A
:1026C000F0D700D01200949C948E080E656E040E14
:1026D000D46EE10EAF6E040EAC6E800EAB6E240EA7
:1026E000AC6E900EAB6E120007D000F000F000F060
:1026F0000106D8A0020600D002500110D8A401D0D3
:1027000001D0F3D700D0120007D000F000F000F0A5
:102710000106D8A0020600D002500110D8A401D0B2
:1027200001D0F3D700D0120002C004F0010E056EF4
:10273000042A02D0D8900536042EFCD70550FF0A93
:10274000011400D0120002C004F0010E056E042A2C
:1027500002D0D8900536042EFCD70550011000D0C9
:10276000120001C090FF000E996E91809196919495
:1027700000F000F091849186120001C090FF000EDD
:10278000996E91909196919400F000F091849186C9
:1027900012009A9ECB68BC68000ECA6E0C0EBB6E0F
:1027A000000ECC6ECA8412009A9ECB68BC68000EE4
:1027B000CA6E0C0EBB6E000ECC6ECA8412000100F5
:0827C000050078002800140058
:020000040020DA
:08000000FFFFFFFFFFFFFFFF00
:020000040030CA
:0E00000015136100308081FFFFC0FFE0FF405C
:00000001FF
