:0400000051EF00F0CC
:10000800FACF82F0FBCF83F0E9CF84F0EACF85F016
:10001800E1CF86F0E2CF87F0D9CF88F0DACF89F048
:10002800F3CF8AF0F4CF8BF0F6CF8CF0F7CF8DF0CA
:10003800F8CF8EF0F5CF8FF0D8CF61F00001000136
:10004800606FE0CF62F0EACF63F0E9CF64F0F2AA24
:1000580001D001D06CD1F2A401D001D068D1000147
:1000680000016505D8A401D001D00BD01B0EFC6E91
:100078000001816F000E00010001656F00018151D0
:1000880000D06FC0EAFF000EE96E60C0EEFF61C0ED
:10009800EEFF62C0EEFFFCCFEEFF63C0EEFF64C070
:1000A800EEFFE2CFEEFFE1CFEEFFDACFEEFFD9CFE2
:1000B800EEFFF4CFEEFFF3CFEEFFF8CFEEFFF7CF72
:1000C800EEFFF6CFEEFFF5CFEEFFFBCFEEFFFACF58
:1000D800EEFF000EE26E000EE16EE6CFEEFFE6CF19
:1000E800EEFFE6CFEEFFE6CFEEFFE6CFEEFFE6CF80
:1000F800EEFFE6CFEEFFE6CFEEFFE6CFEEFFE6CF70
:10010800EEFFE6CFEEFFE6CFEEFFE6CFEEFFE6CF5F
:10011800EEFFE6CFEEFFE6CFEEFFE6CFEEFFE6CF4F
:10012800EEFFE6CFEEFFE6CFEEFFE6CFEEFFE6CF3F
:10013800EEFFE6CFEEFFE6CFEEFFE6CFEEFFE6CF2F
:10014800EEFFE6CFEEFFE6CFEEFFE6CFEEFFE6CF1F
:10015800EEFFE6CFEEFFE6CFEEFFE6CFEEFFE6CF0F
:10016800EEFFE6CFEEFFE6CFEEFFE6CFEEFFE6CFFF
:10017800EEFFE6CFEEFFE6CFEEFFE6CFEEFFE6CFEF
:10018800EEFFE6CFEEFFE6CFEEFFE6CFEEFFE6CFDF
:10019800EEFFE6CFEEFFE6CFEEFF8A0ED76ECF0E6C
:1001A800D66EF29400010001714B722B0001000120
:1001B800702B000100017051060AD8A401D001D0AB
:1001C80009D00001816F000E00010001706F00016D
:1001D800815100D0000100017051010D0001690E2C
:1001E800F324D96E0001000EF420DA6EDF5000010E
:1001F80000016F6F000EE26E000EE16E6FC0EAFF45
:10020800120EE96EEECFE6FFEECFE6FFEECFE6FF89
:10021800EECFE6FFEECFE6FFEECFE6FFEECFE6FF4E
:10022800EECFE6FFEECFE6FFEECFE6FFEECFE6FF3E
:10023800EECFE6FFEECFE6FFEECFE6FFEECFE6FF2E
:10024800EECFE6FFEECFE6FFEECFE6FFEECFE6FF1E
:10025800EECFE6FFEECFE6FFEECFE6FFEECFE6FF0E
:10026800EECFE6FFEECFE6FFEECFE6FFEECFE6FFFE
:10027800EECFE6FFEECFE6FFEECFE6FFEECFE6FFEE
:10028800EECFE6FFEECFE6FFEECFE6FFEECFE6FFDE
:10029800EECFE6FFEECFE6FFEECFE6FFEECFE6FFCE
:1002A800EECFE6FFEECFE6FFEECFE6FFEECFE6FFBE
:1002B800EECFE6FFEECFE6FFEECFE6FFEECFE6FFAE
:1002C800EECFE6FF6FC0EAFF000EE96EEECF60F0FA
:1002D800EECF61F0EECF62F0EECFFCFFEECF63F031
:1002E800EECF64F0EECFE2FFEECFE1FFEECFDAFF24
:1002F800EECFD9FFEECFF4FFEECFF3FFEECFF8FF4E
:10030800EECFF7FFEECFF6FFEECFF5FFEECFFBFF18
:10031800EECFFAFF64C0E9FF63C0EAFF62C0E0FF06
:1003280000010001605161C0D8FF100000D064C016
:10033800E9FF63C0EAFF62C0E0FF0001000160510D
:1003480061C0D8FF100000EC80F095EC88F03DEC1F
:1003580089F0D0EC86F091EC85F024EC8FF08FC01A
:10036800F5FF8EC0F8FF8DC0F7FF8CC0F6FF8BC07D
:10037800F4FF8AC0F3FF89C0DAFF88C0D9FF87C0BD
:10038800E2FF86C0E1FF85C0EAFF84C0E9FF83C0C1
:10039800FBFF82C0FAFF1100FACF91F0FBCF92F079
:0803A800E9CF93F0E9EF8BF0BF
:10FEEC0020415543554E202020202020202020202A
:10FEFC002020202000616C61726D655F62617474FA
:10FF0C00657269653D00616C61726D655F766974DF
:10FF1C00657373653D00616C61726D655F736965D6
:10FF2C0067653D00616C61726D655F6875696C65D4
:10FF3C003D00616C61726D655F667265696E3D0056
:10FF4C0054656D702E204875696C653A00616C6162
:10FF5C00726D655F63686F633D0065727265757283
:10FF6C005F63686F633D00582D4A6F7973746963E2
:10FF7C006B3A00592D4A6F79737469636B3A00615F
:10FF8C006C61726D655F636C653D00616C61726D77
:10FF9C00655F6561753D0054656D702E204561751A
:10FFAC003A0063686F635F74696D653D004261740C
:10FFBC0074657269653A00566974657373653A00C5
:10FFCC004D61726368653A0042616467653A00533B
:10FFDC00696567653A0028282129290043686F6301
:10FFEC003A0020793D004E2000783D0041520041FE
:04FFFC0056000000AB
:020000040001F9
:10000000000E316E000E306E3A04D8A401D001D03B
:100010001DD02E6E0B0E1C6E2E502F6E000E1D6E00
:100020002F5068EC8DF0FF0E1C6E120E1B6ECFEC85
:100030008EF0070107010345010B010B1B6E72ECEB
:100040008CF02E6E000E3A6E2E5000D0F29E0AEC0E
:100050008EF0DAEC87F06FEC8EF09FEC8EF01EECF9
:1000600090F02E6E020E126E2E50F6EC8FF02E6E69
:10007000010E00010001806F2E50520EAD6EF28E07
:100080008B948B928F902E6E000E00010001736F87
:100090002E502E6E780E00010001746F2E502E6EC1
:1000A000000E000100017F6F2E502E6E0D0E1C6E93
:1000B0002E502F6E220E1D6E2F5068EC8DF02E6E7E
:1000C000520E1B6E2E50FBEC8EF02E6E200E1B6E11
:1000D0002E50FBEC8EF02E6E560E1B6E2E50FBEC4F
:1000E0008EF02E6E200E1B6E2E50FBEC8EF02E6EC0
:1000F000420E1B6E2E50FBEC8EF02E6E0E0E1C6E02
:100100002E502F6E220E1D6E2F5068EC8DF02E6E2D
:10011000300E1B6E2E50FBEC8EF02E6E200E1B6EE2
:100120002E50FBEC8EF02E6E300E1B6E2E50FBEC24
:100130008EF02E6E200E1B6E2E50FBEC8EF02E6E6F
:10014000300E1B6E2E50FBEC8EF02E6E0F0E1C6EC2
:100150002E502F6E220E1D6E2F5068EC8DF02E6EDD
:10016000310E1B6E2E50FBEC8EF02E6E200E1B6E91
:100170002E50FBEC8EF02E6E310E1B6E2E50FBECD3
:100180008EF02E6E200E1B6E2E50FBEC8EF02E6E1F
:10019000310E1B6E2E50FBEC8EF02E6E000E000109
:1001A0000001666F2E503DC021F03EC022F03FC0DE
:1001B00023F040C024F00A0E3D24256E000E3E20A0
:1001C000266E0A0E3F24276E000E4020286EF6ECA5
:1001D0008CF03DC036F03EC037F03FC038F040C034
:1001E00039F000D02E6E000E1C6E2E502F6E000EB9
:1001F0001D6E2F5068EC8DF0FF0E1C6ECC0E1B6E2A
:10020000CFEC8EF081B001D001D007D0FF0E1C6E74
:10021000FB0E1B6ECFEC8EF012D081B201D001D05C
:1002200007D0FF0E1C6EF80E1B6ECFEC8EF007D0C1
:10023000FF0E1C6EF20E1B6ECFEC8EF000D02E6EF9
:10024000010E1C6E2E502F6E000E1D6E2F5068EC8E
:100250008DF0FF0E1C6EDB0E1B6ECFEC8EF081B4AA
:1002600001D001D007D02E6E310E1B6E2E50FBEC4C
:100270008EF006D02E6E300E1B6E2E50FBEC8EF0E4
:100280002E6E020E1C6E2E502F6E000E1D6E2F5005
:1002900068EC8DF0FF0E1C6EA30E1B6ECFEC8EF083
:1002A0002E6E020E126E2E504CEC8FF01B6E72EC06
:1002B0008CF02E6E030E1C6E2E502F6E000E1D6ED7
:1002C0002F5068EC8DF0FF0E1C6E4C0E1B6ECFECA9
:1002D0008EF02E6E030E126E2E504CEC8FF01B6EB5
:1002E00072EC8CF02E6E040E1C6E2E502F6E000ED3
:1002F0001D6E2F5068EC8DF0FF0E1C6EE80E1B6E0D
:10030000CFEC8EF081B601D001D007D02E6E310E29
:100310001B6E2E50FBEC8EF006D02E6E300E1B6E38
:100320002E50FBEC8EF02E6E050E1C6E2E502F6E96
:10033000000E1D6E2F5068EC8DF0FF0E1C6EC30E6C
:100340001B6ECFEC8EF084B001D001D004D0000140
:100350000001732B00D084B201D001D004D0000181
:100360000001730700D073C01BF072EC8CF02E6E8E
:10037000060E1C6E2E502F6E000E1D6E2F5068EC58
:100380008DF0FF0E1C6EB90E1B6ECFEC8EF084B498
:1003900001D001D004D000010001742B00D084B63C
:1003A00001D001D004D000010001740700D074C056
:1003B0001BF072EC8CF02E6E070E1C6E2E502F6E02
:1003C000000E1D6E2F5068EC8DF084B801D001D066
:1003D00007D0FF0E1C6EE20E1B6ECFEC8EF006D027
:1003E000FE0E1C6EFB0E1B6ECFEC8EF02E6E080EFA
:1003F0001C6E2E502F6E000E1D6E2F5068EC8DF06F
:10040000FF0E1C6ED40E1B6ECFEC8EF000010001AF
:100410007F6701D001D007D0FE0E1C6EEC0E1B6E64
:10042000CFEC8EF01FD02E6E000E326E2E5010D0FC
:100430003250010D0001750EF324D96E0001000E3B
:10044000F420DA6EDF501B6E72EC8CF0322A00D092
:10045000000100017F51325CD8A001D001D0E8D763
:1004600001D000D02E6E090E1C6E2E502F6E000E85
:100470001D6E2F5068EC8DF0FF0E1C6E730E1B6E00
:10048000CFEC8EF02E6E0A0E126E2E504CEC8FF0CA
:100490001B6E72EC8CF02E6E0A0E1C6E2E502F6EA0
:1004A000000E1D6E2F5068EC8DF0FF0E1C6E7F0E3F
:1004B0001B6ECFEC8EF02E6E0B0E126E2E504CEC8F
:1004C0008FF01B6E72EC8CF0000100016605D8A461
:1004D00001D001D025D02E6E000E1C6E2E502F6E36
:1004E000140E1D6E2F5068EC8DF0FF0E1C6EF50E75
:1004F0001B6ECFEC8EF067C01BF072EC8CF0FF0E21
:100500001C6EEE0E1B6ECFEC8EF068C01BF072EC12
:100510008CF067C01CF068C01DF061EC8AF002D05E
:1005200000F000D02E6E0B0E1C6E2E502F6E000EA3
:100530001D6E2F5068EC8DF0FF0E1C6E970E1B6E1B
:10054000CFEC8EF0070107010351010B1B6E72EC1B
:100550008CF02E6E0C0E1C6E2E502F6E000E1D6E2B
:100560002F5068EC8DF0FF0E1C6E300E1B6ECFEC22
:100570008EF007010701D8900331010B1B6E72EC5E
:100580008CF02E6E0D0E1C6E2E502F6E000E1D6EFA
:100590002F5068EC8DF0FF0E1C6E590E1B6ECFECC9
:1005A0008EF0070107010341E8423F0B010B1B6E70
:1005B00072EC8CF02E6E0E0E1C6E2E502F6E000EF6
:1005C0001D6E2F5068EC8DF0FF0E1C6E010E1B6E21
:1005D000CFEC8EF0070107010339E8461F0B010B32
:1005E0001B6E72EC8CF02E6E0B0E1C6E2E502F6E4E
:1005F000140E1D6E2F5068EC8DF0FF0E1C6E8B0ECE
:100600001B6ECFEC8EF00701070103390F0B010BB6
:100610001B6E72EC8CF02E6E0C0E1C6E2E502F6E1C
:10062000140E1D6E2F5068EC8DF0FF0E1C6E3E0EEA
:100630001B6ECFEC8EF0070107010339E842070B70
:10064000010B1B6E72EC8CF02E6E0D0E1C6E2E507C
:100650002F6E140E1D6E2F5068EC8DF0FF0E1C6E69
:10066000220E1B6ECFEC8EF0070107010345E84612
:10067000030B010B1B6E72EC8CF02E6E0E0E1C6EBB
:100680002E502F6E140E1D6E2F5068EC8DF0FF0E45
:100690001C6E660E1B6ECFEC8EF007010701044145
:1006A000E8423F0B010B1B6E72EC8CF02E6E0F0EAE
:1006B0001C6E2E502F6E140E1D6E2F5068EC8DF098
:1006C000FF0E1C6EAE0E1B6ECFEC8EF008C71BF03B
:1006D00072EC8CF007C71BF072EC8CF006C71BF0B5
:1006E00072EC8CF005C71BF072EC8CF02E6E0A0ECB
:1006F000126E2E504CEC8FF02F6E2F28D8A401D004
:1007000001D070D536C021F037C022F038C023F0B8
:1007100039C024F00A0E3624256E000E3720266ECE
:100720000A0E3824276E000E3920286E2FEC8DF02B
:10073000010E3624216E000E3720226E38C023F0C1
:1007400039C024F00B0E3624256E000E3720266E9D
:1007500038C027F039C028F0F6EC8CF0010E3624B2
:10076000366E000E3720376E3DD53CD53BD5120096
:1007700000019F6F010E00010001656F00019F5194
:1007800000019F6F010E00010001696F00019F5180
:1007900000019F6F020E000100016A6F00019F516E
:1007A00000019F6F030E000100016B6F00019F515C
:1007B00000019F6F040E000100016C6F00019F514A
:1007C00000019F6F050E000100016D6F00019F5138
:1007D00000019F6F060E000100016E6F00019F5126
:1007E00000019F6F050E00010001706F00019F5115
:1007F000000100017051010D0001690EF324D96E52
:100800000001000EF420DA6EDF50000100016F6F6E
:10081000FCCFA0F0020EFC6E000E00010001A26FE2
:10082000000E00010001A36F010E00010001A46F82
:10083000A2C0A7F0A3C0A8F0A4C0A9F00001000EB8
:1008400000010001A66F0001A70E0001A56FA5C061
:10085000D9FFA6C0DAFFDF50FD6E00010001A54BF5
:10086000A62BA5C0D9FFA6C0DAFFDF50FE6E00019F
:100870000001A54BA62BA5C0D9FFA6C0DAFFDF500B
:10088000FF6E070EFC6E2A0E00010001A26F110E12
:1008900000010001A36F010E00010001A46FA2C0BE
:1008A000A7F0A3C0A8F0A4C0A9F00001000E0001A9
:1008B0000001A66F0001A70E0001A56FA5C0D9FF1A
:1008C000A6C0DAFFDF50FD6E00010001A54BA62B8C
:1008D000A5C0D9FFA6C0DAFFDF50FE6E00010001FF
:1008E000A54BA62BA5C0D9FFA6C0DAFFDF50FF6E2F
:1008F0000C0EFC6E7A0E00010001A26F120E0001B8
:100900000001A36F010E00010001A46FA2C0A7F0B7
:10091000A3C0A8F0A4C0A9F00001000E00010001CE
:10092000A66F0001A70E0001A56FA5C0D9FFA6C044
:10093000DAFFDF50FD6E00010001A54BA62BA5C01C
:10094000D9FFA6C0DAFFDF50FE6E00010001A54B03
:10095000A62BA5C0D9FFA6C0DAFFDF50FF6E110E8F
:10096000FC6EA00E00010001A26F0D0E000100013F
:10097000A36F010E00010001A46FA2C0A7F0A3C0E5
:10098000A8F0A4C0A9F00001000E00010001A66FAC
:100990000001A70E0001A56FA5C0D9FFA6C0DAFF10
:1009A000DF50FD6E00010001A54BA62BA5C0D9FFAD
:1009B000A6C0DAFFDF50FE6E00010001A54BA62B9A
:1009C000A5C0D9FFA6C0DAFFDF50FF6E160EFC6E81
:1009D000220E00010001A26F0B0E00010001A36FA7
:1009E000010E00010001A46FA2C0A7F0A3C0A8F0EF
:1009F000A4C0A9F00001000E00010001A66F0001D3
:100A0000A70E0001A56FA5C0D9FFA6C0DAFFDF5071
:100A1000FD6E00010001A54BA62BA5C0D9FFA6C005
:100A2000DAFFDF50FE6E00010001A54BA62BA5C02A
:100A3000D9FFA6C0DAFFDF50FF6E1B0EFC6E480E1A
:100A400000010001A26F1E0E00010001A36F010E44
:100A500000010001A46FA2C0A7F0A3C0A8F0A4C029
:100A6000A9F00001000E00010001A66F0001A70E11
:100A70000001A56FA5C0D9FFA6C0DAFFDF50FD6E4B
:100A800000010001A54BA62BA5C0D9FFA6C0DAFF27
:100A9000DF50FE6E00010001A54BA62BA5C0D9FFBB
:100AA000A6C0DAFFDF50FF6EA0C0FCFF00019F6F01
:100AB000020E01010101036F00019F5100019F6FB0
:100AC000070E02010201036F00019F5100019F6F99
:100AD0000C0E03010301036F00019F5100019F6F82
:100AE000110E04010401036F00019F5100019F6F6B
:100AF000160E05010501036F00019F5100019F6F54
:100B00001B0E06010601036F00019F51000E00013C
:100B10000001726F000E0001716F010ED56EF28A36
:100B2000120081A401D001D013D000010001735143
:100B3000D8B401D001D00CD003C712F0000E146E4F
:100B4000060E136E5EEC90F007010701036F0CD0E8
:100B500003C712F0000E146E060E136E4FEC90F0E9
:100B600007010701036F00D0000100017F6701D07A
:100B700001D00CD003C712F0000E146E040E136ED9
:100B80005EEC90F007010701036F0CD003C712F071
:100B9000000E146E040E136E4FEC90F00701070167
:100BA000036F00D081B601D001D033D00701070117
:100BB000054B062BB90E07010701055D0B0E07015A
:100BC0000659D8A001D001D00CD003C712F0000EF6
:100BD000146E020E136E5EEC90F007010701036FB6
:100BE00000D0710E07010701055D170E07010659B8
:100BF000D8A001D001D01FD003C712F0000E146E90
:100C0000020E136E5EEC90F007010701046F13D023
:100C100012D00701070106510511D8A401D001D057
:100C200004D007010701054B062B07010701050743
:100C3000D8A0060700D084B801D001D013D000019D
:100C400000017351D8B401D001D00CD003C712F009
:100C5000000E146E050E136E5EEC90F00701070196
:100C6000036F0CD003C712F0000E146E050E136E46
:100C70004FEC90F007010701036F00D0176E020ED2
:100C8000126E17504CEC8FF0186EC90E185CD8A07D
:100C900001D001D00CD003C712F0000E146E000E6C
:100CA000136E5EEC90F007010701036F0CD003C7D1
:100CB00012F0000E146E000E136E4FEC90F0070150
:100CC0000701036F00D0176E030E126E17504CEC25
:100CD0008FF0186EC90E185CD8A001D001D00CD0CE
:100CE00003C712F0000E146E010E136E5EEC90F04E
:100CF00007010701036F0CD003C712F0000E146E3A
:100D0000010E136E4FEC90F007010701036F00D046
:100D1000190E00010001746101D001D00CD003C78D
:100D200012F0000E146E030E136E5EEC90F00701CD
:100D30000701036F0CD003C712F0000E146E030EF0
:100D4000136E4FEC90F007010701036F00D03C5089
:100D50003B10000ED8B4010E3B6E3C6A84A201D059
:100D600002D0010E01D0000E176E84A001D002D077
:100D7000010E01D0000E1714E8A001D001D0D1D689
:100D8000176E000E07010701036F1750176E000E54
:100D900007010701046F1750C4D6C3D6C2D612008C
:100DA00000D09EA801D001D0FCD700D0540EAD6E6B
:100DB00000D0ACA201D001D0FCD701D000D09EA8B9
:100DC00001D001D0FCD700D0410EAD6E00D0ACA256
:100DD00001D001D0FCD701D000D09EA801D001D015
:100DE000FCD700D0430EAD6E00D0ACA201D001D034
:100DF000FCD701D000D09EA801D001D0FCD700D0F4
:100E0000480EAD6E00D0ACA201D001D0FCD701D00D
:100E100000D09EA801D001D0FCD700D0450EAD6E09
:100E200000D0ACA201D001D0FCD701D000D09EA848
:100E300001D001D0FCD700D0340EAD6E00D0ACA2F2
:100E400001D001D0FCD701D000D09EA801D001D0A4
:100E5000FCD700D05F0EAD6E00D0ACA201D001D0A7
:100E6000FCD701D000D09EA801D001D0FCD700D083
:100E7000450EAD6E00D0ACA201D001D0FCD701D0A0
:100E800000D09EA801D001D0FCD700D04E0EAD6E90
:100E900000D0ACA201D001D0FCD701D000D09EA8D8
:100EA00001D001D0FCD700D05F0EAD6E00D0ACA257
:100EB00001D001D0FCD701D000D09EA801D001D034
:100EC000FCD700D0430EAD6E00D0ACA201D001D053
:100ED000FCD701D000D09EA801D001D0FCD700D013
:100EE0004F0EAD6E00D0ACA201D001D0FCD701D026
:100EF00000D09EA801D001D0FCD700D0550EAD6E19
:100F000000D0ACA201D001D0FCD701D000D09EA867
:100F100001D001D0FCD700D0520EAD6E00D0ACA2F3
:100F200001D001D0FCD701D000D09EA801D001D0C3
:100F3000FCD700D0530EAD6E00D0ACA201D001D0D2
:100F4000FCD701D000D09EA801D001D0FCD700D0A2
:100F50000A0EAD6E00D0ACA201D001D0FCD701D0FA
:100F600000D09EA801D001D0FCD700D00D0EAD6EF0
:100F700000D0ACA201D001D0FCD700D0000E136E7F
:100F8000000E126EE80E125CFD0E1358D8A001D0B0
:100F900001D002D005D704D7124A132AE80E125CFA
:100FA000FD0E1358D8A001D001D0F6D7F9D6F8D647
:100FB000F7D612001C6E000E1F6E1C50000E906EB5
:100FC0001F0E916E000E996E000E9A6E919A918C82
:100FD00091981C6E040E126E1C500BEC90F09188D0
:100FE0001C6E0C0E126E1C500BEC90F017D01F2ACA
:100FF0001C6E0C0E126E1C500BEC90F0C80E1F6491
:1010000001D001D00BD08B828F808B94F29EFFD7C2
:101010001C6E000E1F6E1C5001D000D06FEC8FF0C4
:101020000009D8B401D001D0E2D700D01C6E270E41
:10103000176E1C501D6E0F0E186E1D501E6E210E69
:10104000196E1E502EEC8CF01C6E000E176E1C508C
:101050001D6E000E186E1D501E6E220E196E1E5053
:101060002EEC8CF01C6E000E176E1C501D6E000EC8
:10107000186E1D501E6E240E196E1E502EEC8CF034
:101080001C6E000E176E1C501D6E7B0E186E1D50D0
:101090001E6E400E196E1E502EEC8CF01C6E280E2B
:1010A000176E1C501D6E000E186E1D501E6E410EE8
:1010B000196E1E502EEC8CF01C6E000E176E1C501C
:1010C0001D6E800E186E1D501E6E420E196E1E5043
:1010D0002EEC8CF01C6E280E176E1C501D6E000E30
:1010E000186E1D501E6E430E196E1E502EEC8CF0A5
:1010F0001C6E800E176E1C508EEC8FF01C6E9C0EBA
:10110000176E1C508EEC8FF01C6EA00E176E1C50CC
:101110008EEC8FF01C6E020E176E1C501D6E700E42
:10112000186E1D503EEC8EF012001A6E000E00017B
:101130000001666F1A5000D08F868F980B0E136EC9
:10114000B80E126E2FEC90F0160EC06E010EC26E2D
:10115000030EC26E00D0C2B201D001D0FCD7C4CF02
:101160001FF0C3CF20F020500F0BD8B401D001D016
:1011700009D01A6E000E1F6E1A501A6E000E206EE5
:101180001A5000D0090E1F6401D001D06CD08F9688
:101190008F880B0E136EB80E126E2FEC90F0160E99
:1011A000C06E050EC26E070EC26E00D0C2B201D074
:1011B00001D0FCD7C4CF21F0C3CF22F022500F0BB7
:1011C000D8B401D001D009D01A6E000E216E1A5089
:1011D0001A6E000E226E1A5000D0130E216401D038
:1011E00001D039D01F501C6E20501B6E21501E6E36
:1011F00022501D6EB20E1B241B6EF30E1C201C6EA3
:101200009C0E1D241D6EE60E1E201E6E1BC012F0CD
:101210001CC013F0000E156EF60E146EA0EC8DF0CF
:10122000125000010001676F1DC012F01EC013F0C4
:10123000010E156E990E146EA0EC8DF01250000880
:101240007F0F00010001686F1A6E010E000100019E
:10125000666F1A5071D71A6E000E00010001666F9A
:101260001A506AD769D71A6E000E00010001666F26
:101270001A5062D761D760D71200000100016605DD
:10128000D8A401D001D030D0CA0E0001000167659A
:1012900001D001D029D0D10E00010001676101D039
:1012A00001D022D0700E00010001686501D001D08C
:1012B00009D0790E00010001686101D001D002D08F
:1012C0008B8400D0780E00010001686501D001D048
:1012D0000BD07F0E00010001686101D001D004D065
:1012E0008B9402D001D000D0000100016605D8A483
:1012F00001D001D030D0D60E00010001676501D0C9
:1013000001D029D0DD0E00010001676101D001D0BC
:1013100022D0700E00010001686501D001D009D013
:10132000790E00010001686101D001D002D08B82EA
:1013300000D0780E00010001686501D001D00BD00B
:101340007F0E00010001686101D001D004D08B92B2
:1013500002D001D000D0000100016605D8A401D060
:1013600001D08BD7E20E00010001676501D001D0EA
:1013700084D7E90E00010001676101D001D07DD75B
:10138000700E00010001686501D001D009D0790E0E
:1013900000010001686101D001D002D08F8000D02F
:1013A000780E00010001686501D001D066D77F0E7C
:1013B00000010001686101D001D05FD78F905DD737
:1013C0005CD75BD75AD759D7120095828C968C94EC
:1013D000000E136E640E126E3FEC90F08C86166E4B
:1013E000000E176E165000D0030E136EE80E126E2C
:1013F0003FEC90F0172A83A001D001D005D0166EE3
:10140000410E176E165000D0400E176401D001D067
:10141000EBD783A001D001D050D0166E000E186E0D
:101420001650166E000E196E1650166E000E1A6EBD
:101430001650166E000E196E1650070E196401D064
:1014400001D002D026D025D083A201D001D003D074
:101450001A5001091A6E1A501A241A6E000E136ED1
:10146000640E126E3FEC90F08C84010E136EF40E3D
:10147000126E3FEC90F08C94010E136E900E126E73
:101480003FEC90F0192A070E196401D001D0DCD787
:1014900000D01850010DF3501424D96EF4501520CB
:1014A000DA6E1AC0DFFF182A83B001D001D0BDD791
:1014B00000D0185005D004D003D0000E01D000D0C9
:1014C00012001CC012F0136A000E156E060E146E88
:1014D00037EC8BF01D50280D1250F3241F6E135063
:1014E000F420206E1FC017F02050186E1E6E240EC0
:1014F000196E1E502EEC8CF02CD01E6EFD0E176E49
:101500001E508EEC8FF047D01E6EFC0E176E1E50D4
:101510008EEC8FF040D01E6EFB0E176E1E508EECC0
:101520008FF039D01E6EFA0E176E1E508EEC8FF0B3
:1015300032D01E6EF90E176E1E508EEC8FF02BD02F
:101540001E6EF80E176E1E508EEC8FF024D023D036
:1015500022D01CC012F0136A000E156E060E146E17
:1015600095EC8BF01350000AD8B401D014D012506F
:10157000000AD8B4C2D7010AD8B4C6D7030AD8B46F
:10158000CAD7010AD8B4CED7070AD8B4D2D7010A2D
:10159000D8B4D6D700D012001CC012F0136A000EC7
:1015A000156E060E146E37EC8BF01D50280D125080
:1015B000F3241F6E1350F420206E1FC017F020502C
:1015C000186E1E6E240E196E1E502EEC8CF02CD050
:1015D0001E6EF50E176E1E508EEC8FF047D01E6EED
:1015E000F40E176E1E508EEC8FF040D01E6EF30E70
:1015F000176E1E508EEC8FF039D01E6EF20E176EE5
:101600001E508EEC8FF032D01E6EF10E176E1E50F3
:101610008EEC8FF02BD01E6EF00E176E1E508EECDF
:101620008FF024D023D022D01CC012F0136A000EF9
:10163000156E060E146E95EC8BF01350000AD8B49C
:1016400001D014D01250000AD8B4C2D7010AD8B4BD
:10165000C6D7030AD8B4CAD7010AD8B4CED7070A66
:10166000D8B4D2D7010AD8B4D6D700D01200166E9B
:10167000000E186E165015AE01D001D009D0146CB2
:10168000151ED8B0152A166E010E186E165000D011
:1016900013AE01D001D007D0126C131ED8B0132A9C
:1016A000010E181A00D0000E1A6E000E196E155099
:1016B0001410D8B401D001D028D0166E010E176EC8
:1016C000165005D0D89014361536172A00D015AE0E
:1016D00001D001D0F7D701D000D0D89019361A36F2
:1016E0001450125C15501358D8A001D001D006D068
:1016F0001450125E1550135A198000D0D89015322C
:101700001432172EEAD701D000D01850D8B401D027
:1017100001D005D0196C1A1ED8B01A2A00D019C0F1
:1017200012F01AC013F000D01200166E000E186EE0
:10173000165013AE01D001D009D0126C131ED8B0D0
:10174000132A166E010E186E165000D015AE01D079
:1017500001D005D0146C151ED8B0152A00D0155034
:101760001410D8B401D001D024D0166E010E176E1B
:10177000165005D0D89014361536172A00D015AE5D
:1017800001D001D0F7D701D000D01450125C155011
:101790001358D8A001D001D005D01450125E1550B6
:1017A000135A00D0D89015321432172EEED701D02C
:1017B00000D01850D8B401D001D005D0126C131E3F
:1017C000D8B0132A00D012C012F013C013F000D00A
:1017D0001200EACF94F0E1CF95F0E2CF96F0D9CFA6
:1017E00097F0DACF98F0F3CF99F0F4CF9AF0F6CFE4
:1017F0009BF0F7CF9CF0F8CF9DF0F5CF9EF0845092
:10180000010B0001906F270E0001905DD8A001D060
:1018100001D007D00001906F010E3A6E0001905187
:1018200000D09EC0F5FF9DC0F8FF9CC0F7FF9BC095
:10183000F6FF9AC0F4FF99C0F3FF98C0DAFF97C093
:10184000D9FF96C0E2FF95C0E1FF94C0EAFF93C0C4
:10185000E9FF92C0FBFF91C0FAFF11001A6E000E63
:101860001B6E1A50B5EC8CF01A6E1A04D8A401D075
:1018700001D035D01A6E0C0E126E1A500BEC90F08F
:1018800017C012F06CEC90F0B5EC8CF01A6E1A04E4
:10189000D8A401D001D023D01A6E0C0E126E1A50AB
:1018A0000BEC90F018C012F06CEC90F0B5EC8CF0F2
:1018B0001A6E1A04D8A401D001D011D01A6E0C0EE1
:1018C000126E1A500BEC90F019C012F078EC90F0F8
:1018D0001A6E010E1B6E1A5002D001D000D01B50A0
:1018E00000D012001B380F0B1D6E090E1D6401D0B5
:1018F00001D004D01D50170F1D6E07D01D50100FC2
:101900001D6E03D002D000F000D01DC017F01C6E79
:10191000C00E186E1C503EEC8EF00009D8B401D0F9
:1019200001D0F1D700D01B500F0B1D6E090E1D64A6
:1019300001D001D004D01D50170F1D6E07D01D50CF
:10194000100F1D6E03D002D000F000D01DC017F0A4
:101950001C6EC00E186E1C503EEC8EF00009D8B400
:1019600001D001D0F1D700D01200136E000E146E1A
:101970001350136E020E166E13502ED0996891807C
:101980009196919200F087CF15F091829186155033
:10199000030B156E1550030AD8B401D001D016D030
:1019A000142A136E0C0E126E13500BEC90F0F90EFD
:1019B000146401D001D010D0F29E8B948B828F8062
:1019C000136E000E166E135007D006D0136E010E64
:1019D000166E135001D000D01650020AD8B401D0B0
:1019E00001D0CCD700D0165000D01200000E2B6EC4
:1019F000000E2A6E000E2D6E000E2C6E21C02AF0F5
:101A000022C02BF01ED023C02CF024C02DF009D012
:101A10002AC01CF02CC01DF061EC8AF02C4A2D2A43
:101A200000D02D50800A296E27502C5C2850800A47
:101A30002958D8A001D001D0EBD700D02A4A2B2AB0
:101A400000D02B50800A296E25502A5C2650800A2F
:101A50002958D8A001D001D0D6D700D01200000E4E
:101A60002B6E000E2A6E000E2D6E000E2C6E21C005
:101A70002AF022C02BF01ED023C02CF024C02DF061
:101A800009D02AC01CF02CC01DF0CCEC8AF02C4AE6
:101A90002D2A00D02D50800A296E27502C5C28500A
:101AA000800A2958D8A001D001D0EBD700D02A4A0B
:101AB0002B2A00D02B50800A296E25502A5C2650F4
:101AC000800A2958D8A001D001D0D6D700D0120062
:101AD0007B0E206E000E1F6E0F0E1C6401D001D015
:101AE00005D01E6E000E1C6E1E5000D0270E1D6409
:101AF00001D001D005D01E6E000E1D6E1E5000D00C
:101B00001C50280D1D50F326000EF4221F50F32404
:101B10001F6E2050F420206E02D000F000D01FC0B5
:101B200017F02050186E1E6E240E196E1E502EECEB
:101B30008CF00009D8B401D001D0EFD700D012004A
:101B4000000E186E000E176E15501410D8B401D088
:101B500001D027D0166E010E196E165005D0D89000
:101B600014361536192A00D015AE01D001D0F7D79A
:101B700001D000D0D890173618361450125C15508A
:101B80001358D8A001D001D006D01450125E1550C1
:101B9000135A178000D0D89015321432192EEAD774
:101BA00000D017C012F018C013F01200A00E0F01E1
:101BB0000F01266F000E0F010F01256F000E0F01A0
:101BC0000F01246F000E0F010F01236F0F010F0192
:101BD00025810F010F0125830F010F0125850F01BD
:101BE0000F0125870F010F0124850F010F012487A5
:101BF0008B848B828F8094949492989098969898E6
:101C0000959495969A9EF19E0F010F01538D84EC49
:101C100090F01200A00E0F010F01266F000E0F01B1
:101C20000F01256F000E0F010F01246F000E0F0131
:101C30000F01236F0F010F0125810F010F01258374
:101C40000F010F0125850F010F0125870F010F01DE
:101C500024850F010F0124878B848B828F809494BD
:101C60009492989098969898959495969A9EF19EAD
:101C70000F010F01538D8FEC90F01200196E000EC2
:101C80001A6E1950B5EC8CF0196E1904D8A401D055
:101C900001D022D0196E0C0E126E19500BEC90F080
:101CA00017C012F06CEC90F0B5EC8CF0196E1904C2
:101CB000D8A401D001D010D0196E0C0E126E19509C
:101CC0000BEC90F018C012F078EC90F0196E010E49
:101CD0001A6E195001D000D01A5000D012001C6E9C
:101CE000000E176E1C501D6E000E186E1D501E6EDD
:101CF000240E196E1E502EEC8CF0000E206E000E7D
:101D00001F6E2050800A1F10D8A401D001D002D02D
:101D100015D014D01C6E000E176E1C501D6EC00E18
:101D2000186E1D503EEC8EF01F4A202A2050800A6B
:101D30001F10D8A401D001D0EDD700D012001C6E26
:101D4000000E176E1C501D6E800E186E1D501E6EFC
:101D5000240E196E1E502EEC8CF0800E206E000E9C
:101D60001F6E2050F80A1F10D8A401D001D002D055
:101D700015D014D01C6E000E176E1C501D6EC00EB8
:101D8000186E1D503EEC8EF01F4A202A2050F80A93
:101D90001F10D8A401D001D0EDD700D012001CD064
:101DA00002D000F000D01BC0F6FF1CC0F7FF000EF1
:101DB000F86E0800F550E00F176E1D6EC00E186E1D
:101DC0001D503EEC8EF00009D8B401D001D0E9D707
:101DD00000D01B4A1C2A00D01BC0F6FF1CC0F7FF16
:101DE000000EF86E0800F5500009D8A401D001D00B
:101DF000DAD700D01200200E1B6001D001D005D030
:101E00001C6E3F0E1B6E1C5000D09F0E1B6401D039
:101E100001D005D01C6E3F0E1B6E1C5000D01B5015
:101E2000E00F1B6E02D000F000D01BC017F01C6E3C
:101E3000C00E186E1C503EEC8EF00009D8B401D0D4
:101E400001D0F1D700D012000001000E156E000184
:101E5000750E146EE5EC89F01C6E1C50D8B401D0E0
:101E600001D010D00A0E1C6001D001D003D01CC0DC
:101E70007FF0EAD71B6E000E000100017F6F1B5040
:101E8000E3D7E2D71B6E000E000100017F6F1B50ED
:101E9000DBD7DAD7D9D71200000EC16E160EC06E8E
:101EA00012501F0B126E1244E846FC0B126E1250B9
:101EB0000109C26EC28200D0C2B201D001D0FCD7EB
:101EC000C3A001D001D005D0136E000E146E1350C4
:101ED00003D0C4CF14F000D0145000D01200996881
:101EE00091809196919200F000F000F087CF13F06E
:101EF000918291861350030B030AD8A401D001D01C
:101F000005D0126E010E136E125005D0126E000E27
:101F1000136E125000D0135000D01200186E000E35
:101F2000196E1850B5EC8CF0186E1804D8A401D0B6
:101F300001D010D0186E0C0E126E18500BEC90F0F1
:101F400017C012F078EC90F0186E010E196E185050
:101F500001D000D012000FD00001A06F010E416E21
:101F60000001A05112D00001A06F010E426E0001CD
:101F7000A0510BD00AD0000100019F51010AD8B432
:101F8000EBD7030AD8B4EFD700D0120000EE33F03D
:101F9000080EEE6AE806FDE1340EF66E210EF76ECD
:101FA000010EF86E00EE3BF010EE06F00900F5CFE2
:101FB000EEFFE550E150FAE10001DFEF8FF0D6ECE3
:101FC0008DF0B8EC83F00001A16F010E000100015B
:101FD0009F6F0001A1510001ABEC8FF0D58EF28410
:101FE000F28E00F0FED7FDD751EF00F00BD0136E4C
:101FF000010E416E13500ED0136E010E426E13503F
:1020000009D008D01250010AD8B4F1D7030AD8B4C5
:10201000F3D700D012000CD000F000F000F000F078
:1020200000F000F000F000F000F000F0120600D028
:10203000126601D001D0F0D700D01200949C948E8B
:10204000080E656E040ED46EE10EAF6E040EAC6E1B
:10205000800EAB6E240EAC6E900EAB6E120007D0ED
:1020600000F000F000F01206D8A0130600D01350C4
:102070001210D8A401D001D0F3D700D0120007D09D
:1020800000F000F000F01206D8A0130600D01350A4
:102090001210D8A401D001D0F3D700D0120013C081
:1020A00015F0010E166E152A02D0D8901636152E90
:1020B000FCD71650FF0A121400D0120013C015F0FE
:1020C000010E166E152A02D0D8901636152EFCD7A2
:1020D0001650121000D0120012C090FF000E996E20
:1020E00091909196919400F000F091849186120065
:1020F00012C090FF000E996E91809196919400F01D
:1021000000F09184918612009A9ECB68BC68000E04
:10211000CA6E0C0EBB6E000ECC6ECA8412009A9E64
:10212000CB68BC68000ECA6E0C0EBB6E000ECC6E87
:0A213000CA841200010078002800A4
:020000040020DA
:08000000FFFFFFFFFFFFFFFF00
:020000040030CA
:0E00000015136100308081FFFFC0FFE0FF405C
:00000001FF
